:100000000C942A000C94840E0C94AD0E0C94D60E15
:100010000C94A0090C946B090C946A0D0C94470085
:100020000C9447000C9447000C94E30A0C94AA0A21
:100030000C94590B0C9447000C9447000C94470007
:100040000C9447000C9447000C9447000C94470014
:100050000C94470011241FBECFE5D8E0DEBFCDBF12
:1000600011E0A0E6B0E0ECE0F9E302C005900D92EB
:10007000A83BB107D9F712E0A8EBB1E001C01D928F
:10008000A232B107E1F70E9409190C94841C0C9468
:100090000000EF92FF920F931F937B018C0120E0F1
:1000A00030E040E05FE40E94F50388238CF0C80153
:1000B000B70120E030E040E05FE40E94C1010E940F
:1000C000B3049B01AC01205030404040504806C072
:1000D000C801B7010E94B3049B01AC01B901CA0178
:1000E0001F910F91FF90EF900895A0E0B0E0EBE733
:1000F000F0E00C947919DC012B01FA019C9192300B
:1001000008F439C1EB018881823008F433C194309E
:1001100069F4843009F02FC111969C91119789815F
:10012000981709F428C1A3E6B0E025C1843009F48A
:1001300021C18230A9F4923009F01DC19A01AD01AC
:1001400088E0EA010990AE01E90109929E0181501F
:10015000C1F7E201898111969C918923818308C1AD
:10016000923009F407C112962D903C901397EB0141
:100170008A819B811496AD90BD90CD90DC901797AD
:10018000EC80FD800E811F819101281B390BB90184
:1001900037FF04C066277727621B730B6032710537
:1001A0000CF061C0121613066CF537014801062EDB
:1001B00004C096948794779467940A94D2F721E0C8
:1001C00030E040E050E004C0220F331F441F551FB1
:1001D0006A95D2F721503040404050402E213F21B7
:1001E00040235123211531054105510521F021E01E
:1001F00030E040E050E079018A01E628F72808293C
:1002000019293CC0232BD1F1260E371E350146019A
:10021000062E04C096948794779467940A94D2F734
:1002200021E030E040E050E004C0220F331F441FC3
:10023000551F6A95D2F721503040404050402A2146
:100240003B214C215D21211531054105510521F04E
:1002500021E030E040E050E059016A01A628B728CB
:10026000C828D9280BC0821593052CF01C01AA249C
:10027000BB24650103C0EE24FF24870111969C91E5
:10028000D20111968C91981709F445C0992339F041
:10029000A80197012A193B094C095D0906C0A6016E
:1002A00095012E193F09400B510B57FD08C01182D3
:1002B0003382228224833583468357831DC081E0A5
:1002C00081833382228288279927DC01821B930B4A
:1002D000A40BB50B84839583A683B7830DC0220F2F
:1002E000331F441F551F24833583468357838281E0
:1002F000938101979383828324813581468157813D
:10030000DA01C9010197A109B1098F5F9F4FAF4F72
:10031000BF4328F30BC0918333822282EA0CFB1C7B
:100320000C1D1D1DE482F5820683178383E0808304
:10033000248135814681578157FF1AC0C901AA27F8
:1003400097FDA095BA2F81709070A070B0705695EF
:10035000479537952795822B932BA42BB52B848318
:100360009583A683B7838281938101969383828349
:10037000DF0101C0D201CD01CDB7DEB7E2E10C94BF
:100380009519A0E2B0E0E7ECF1E00C9485196983DF
:100390007A838B839C832D833E834F835887E9E048
:1003A000EE2EF12CEC0EFD1ECE010196B7010E943F
:1003B000A4068E010F5E1F4FCE010596B8010E9464
:1003C000A4068A8991E089278A8BC701B801AE010A
:1003D000475E5F4F0E9475000E94CF05A096E6E041
:1003E0000C94A119A0E2B0E0E8EFF1E00C948519BB
:1003F00069837A838B839C832D833E834F835887C5
:10040000F9E0EF2EF12CEC0EFD1ECE010196B701A6
:100410000E94A4068E010F5E1F4FCE010596B80103
:100420000E94A406C701B801AE01475E5F4F0E945B
:1004300075000E94CF05A096E6E00C94A119A0E2F9
:10044000B0E0E5E2F2E00C94791969837A838B835A
:100450009C832D833E834F835887CE010196BE0136
:10046000675F7F4F0E94A406CE010596BE016F5EB6
:100470007F4F0E94A4069985923088F08989823046
:10048000C8F0943019F4823051F404C0843029F457
:10049000923081F483E690E0C6C0923049F420E0C7
:1004A0009A858A89981321E02A87CE010996BBC0D4
:1004B000823049F420E09A858A89981321E02A8BBA
:1004C000CE014196B0C02D843E844F8458886D88FB
:1004D0007E888F88988CEE24FF248701AA24BB2471
:1004E000650140E050E060E070E0E0E0F0E0C10174
:1004F00081709070892BE9F0E60CF71C081D191D1E
:100500009A01AB012A0D3B1D4C1D5D1D80E090E062
:10051000A0E0B0E0E614F7040805190520F481E036
:1005200090E0A0E0B0E0BA01A901480F591F6A1F8E
:100530007B1FAA0CBB1CCC1CDD1C97FE08C081E0F5
:1005400090E0A0E0B0E0A82AB92ACA2ADB2A3196B6
:10055000E032F10549F0660C771C881C991C569412
:10056000479437942794C3CFFA85EA892B893C892D
:100570008B859C85280F391F2E5F3F4F17C0CA01FE
:1005800081709070892B61F016950795F794E79428
:1005900080E090E0A0E0B0E8E82AF92A0A2B1B2BC3
:1005A00076956795579547952F5F3F4F77FDE7CF36
:1005B0000CC0440F551F661F771F17FD4160EE0CDE
:1005C000FF1C001F111F21503040403090E05907A0
:1005D00090E0690790E4790760F32B8F3C8FDB0193
:1005E000CA018F779070A070B07080349105A1051A
:1005F000B10561F447FD0AC0E114F10401051105DC
:1006000029F0405C5F4F6F4F7F4F40781A8EFE1786
:1006100011F081E08A8F4D8F5E8F6F8F78A383E01A
:10062000898FCE0149960E94CF05A096E2E10C94F5
:100630009519A8E1B0E0EFE1F3E00C94811969832A
:100640007A838B839C832D833E834F835887B9E0C5
:10065000EB2EF12CEC0EFD1ECE010196B7010E948F
:10066000A4068E010F5E1F4FCE010596B8010E94B1
:10067000A4062985223008F47EC03989323010F46E
:10068000B8017CC08A859A8989278A87243011F02D
:10069000223031F4231709F06EC063E670E06EC0BB
:1006A000343039F41D861E861F86188A1C861B86E8
:1006B00004C0323021F484E08987B7015FC02B8504
:1006C0003C858B899C89281B390B3C872B87ED84C3
:1006D000FE840F851889AD88BE88CF88D88CEA142F
:1006E000FB040C051D0540F4EE0CFF1C001F111F40
:1006F000215030403C872B8720E030E040E050E044
:1007000080E090E0A0E0B0E460E070E0EA14FB0478
:100710000C051D0540F0282B392B4A2B5B2BEA18C2
:10072000FB080C091D09B695A79597958795EE0CC2
:10073000FF1C001F111F6F5F7F4F6F31710531F775
:10074000DA01C9018F779070A070B0708034910584
:10075000A105B10561F427FD0AC0E114F10401050A
:10076000110529F0205C3F4F4F4F5F4F20782D87B8
:100770003E874F87588BBE01675F7F4FCB010E943A
:10078000CF056896EAE00C949D19A8E1B0E0EBEC87
:10079000F3E00C94851969837A838B839C832D8382
:1007A0003E834F83588789E0E82EF12CEC0EFD1E26
:1007B000CE010196B7010E94A4068E010F5E1F4F65
:1007C000CE010596B8010E94A4068985823040F0CA
:1007D0008989823028F0C701B8010E941C0701C036
:1007E00081E06896E6E00C94A119A8E1B0E0EBEF97
:1007F000F3E00C94851969837A838B839C832D8322
:100800003E834F83588789E0E82EF12CEC0EFD1EC5
:10081000CE010196B7010E94A4068E010F5E1F4F04
:10082000CE010596B8010E94A4068985823040F069
:100830008989823028F0C701B8010E941C0701C0D5
:100840008FEF6896E6E00C94A119A8E1B0E0EBE226
:10085000F4E00C94851969837A838B839C832D83C0
:100860003E834F83588789E0E82EF12CEC0EFD1E65
:10087000CE010196B7010E94A4068E010F5E1F4FA4
:10088000CE010596B8010E94A4068985823040F009
:100890008989823028F0C701B8010E941C0701C075
:1008A00081E06896E6E00C94A119A8E0B0E0EBE5E1
:1008B000F4E00C9482199B01AC0183E08983DA0196
:1008C000C9018827B7FD83959927AA27BB27B82E8A
:1008D000211531054105510519F482E089833AC09B
:1008E0008823A9F0203080E0380780E0480780E8BE
:1008F000580729F460E070E080E09FEC30C0EE24FF
:10090000FF248701E21AF30A040B150B02C07901D8
:100910008A018EE1C82ED12CDC82CB82ED82FE8250
:100920000F831887C801B7010E9480050197181628
:10093000190684F4082E04C0EE0CFF1C001F111FC2
:100940000A94D2F7ED82FE820F831887C81AD90A5B
:10095000DC82CB82BA82CE0101960E94CF05289616
:10096000E9E00C949E19ACE0B0E0E9EBF4E00C9403
:10097000891969837A838B839C83CE010196BE019A
:100980006B5F7F4F0E94A4068D81823061F18230BF
:1009900050F1843021F48E81882351F12EC02F81B3
:1009A000388537FD20C06E812F3131051CF066235C
:1009B000F9F023C08EE190E0821B930B29853A85E4
:1009C0004B855C8504C056954795379527958A9544
:1009D000D2F76623B1F050954095309521953F4F61
:1009E0004F4F5F4F0EC020E030E040E050E009C0C4
:1009F0002FEF3FEF4FEF5FE704C020E030E040E033
:100A000050E8B901CA012C96E2E00C94A519A8E0BF
:100A1000B0E0EDE0F5E00C9481197B018C016115EB
:100A200071058105910519F482E0898360C083E036
:100A300089838EE1C82ED12CDC82CB82ED82FE82AE
:100A40000F831887C801B7010E948005FC01319708
:100A5000F7FF3BC0222733272E1B3F0B57016801AE
:100A6000022E04C0D694C794B794A7940A94D2F7E0
:100A700040E050E060E070E081E090E0A0E0B0E0B5
:100A800004C0880F991FAA1FBB1F2A95D2F7019790
:100A9000A109B1098E219F21A023B1230097A105AF
:100AA000B10521F041E050E060E070E04A295B29A7
:100AB0006C297D294D835E836F8378878EE190E07A
:100AC0008E1B9F0B9C838B8312C0309781F00E2E60
:100AD00004C0EE0CFF1C001F111F0A94D2F7ED8218
:100AE000FE820F831887CE1ADF0ADC82CB821A823D
:100AF000CE0101960E94CF052896EAE00C949D193C
:100B0000EF92FF920F931F937B018C0180E0E81618
:100B100080E0F80681E0080780E0180788F48FEF8E
:100B2000E816F1040105110531F028F088E090E0A5
:100B3000A0E0B0E017C080E090E0A0E0B0E012C01C
:100B400080E0E81680E0F80680E0080781E01807FA
:100B500028F088E190E0A0E0B0E004C080E190E0FF
:100B6000A0E0B0E020E230E040E050E0281B390B8C
:100B70004A0B5B0B04C016950795F794E7948A958A
:100B8000D2F7F701E559FF4F8081281B3109410950
:100B90005109C9011F910F91FF90EF900895DF92C5
:100BA000EF92FF920F931F93FC01E480F580068182
:100BB0001781D1808081823048F480E090E0A0E10C
:100BC000B0E0E82AF92A0A2B1B2BA5C0843009F4CF
:100BD0009FC0823021F4EE24FF24870105C0E11478
:100BE000F1040105110519F4E0E0F0E096C062811E
:100BF00073819FEF623879070CF05BC022E83FEF0A
:100C0000261B370B2A3131052CF020E030E040E084
:100C100050E02AC0B801A701022E04C0769567955E
:100C2000579547950A94D2F781E090E0A0E0B0E0B4
:100C300004C0880F991FAA1FBB1F2A95D2F70197DE
:100C4000A109B1098E219F21A023B1230097A105FD
:100C5000B10521F081E090E0A0E0B0E09A01AB01A5
:100C6000282B392B4A2B5B2BDA01C9018F77907027
:100C7000A070B07080349105A105B10539F427FF4B
:100C800009C0205C3F4F4F4F5F4F04C0215C3F4F76
:100C90004F4F5F4FE0E0F0E02030A0E03A07A0E0E7
:100CA0004A07A0E45A0710F0E1E0F0E079018A0178
:100CB00027C06038710564F5FB01E158FF4FD8018A
:100CC000C7018F779070A070B07080349105A10536
:100CD000B10539F4E7FE0DC080E490E0A0E0B0E09B
:100CE00004C08FE390E0A0E0B0E0E80EF91E0A1F18
:100CF0001B1F17FF05C016950795F794E7943196CB
:100D000087E016950795F794E7948A95D1F705C083
:100D1000EE24FF248701EFEFF0E06E2F6795662742
:100D20006795902F9F77D794DD24D7948E2F869543
:100D3000492F462B582F5D29B701CA011F910F91EA
:100D4000FF90EF90DF900895FC01DB01408151811D
:100D50002281622F6F7770E0221F2227221F93814A
:100D6000892F880F822B282F30E0991F9927991FF0
:100D700011969C93119721153105A9F5411551053F
:100D80006105710511F482E037C082E89FEF139688
:100D90009C938E9312979A01AB0167E0220F331F49
:100DA000441F551F6A95D1F783E08C930DC0220F25
:100DB000331F441F551F12968D919C9113970197D5
:100DC00013969C938E931297203080E0380780E032
:100DD000480780E4580758F314962D933D934D939C
:100DE0005C93179708952F3F310579F4411551050C
:100DF0006105710519F484E08C93089564FF03C0C4
:100E000081E08C9312C01C9210C02F573040139673
:100E10003C932E93129783E08C9387E0440F551FE9
:100E2000661F771F8A95D1F7706414964D935D9372
:100E30006D937C93179708951F93DC01FB019C91A0
:100E4000923008F447C08081823008F443C0943067
:100E500051F411961C91843099F58181682F70E0CE
:100E6000611B71093FC0843021F0923031F482302F
:100E7000B9F18181882389F12DC011961C911197B8
:100E80008230F1F081811817D9F412962D913C919E
:100E90001397828193818217930794F0281739075B
:100EA000BCF014968D919D910D90BC91A02D248144
:100EB000358146815781281739074A075B0718F49F
:100EC000112341F00AC082179307A407B50740F425
:100ED000112319F061E070E005C06FEF7FEF02C0F1
:100EE00060E070E0CB011F9108958430D1F185302E
:100EF00040F48230F1F0833040F5813009F06CC06D
:100F00000CC0863009F445C08630B8F1873009F44A
:100F10004CC0883009F060C054C0E1E4F0E080814A
:100F20008E7F808380818D7F808380818B7F808393
:100F300053C0E1E4F0E080818160808380818D7F17
:100F4000808380818B7F808347C0E1E4F0E08081F3
:100F50008E7F808380818260808380818B7F80838D
:100F60003BC0E1E4F0E08081816080838081826029
:100F7000808380818B7F80832FC0E1E4F0E08081DB
:100F80008E7F808380818D7F808380818460808359
:100F900023C0E1E4F0E080818160808380818D7FE7
:100FA000808380818460808317C0E1E4F0E08081E9
:100FB0008E7F808380818260808380818460808353
:100FC0000BC0E1E4F0E080818160808380818260F9
:100FD0008083808184608083E1E4F0E080818860A8
:100FE00080830895E1E4F0E088E180831082089531
:100FF00087E689B9EBE2F0E080818D7F8083EAE2C9
:10100000F0E08081806180838081886080830895A2
:10101000982FEBE2F0E0808185FFFDCF9CB9089529
:10102000EBE2F0E080818823ECF78CB10895CF9358
:10103000DF93FC018081882339F0EF010E940808CA
:10104000898121968823D1F7DF91CF910895EF927E
:10105000FF920F931F93DF93CF93CDB7DEB76497C3
:101060000FB6F894DEBF0FBECDBF60E070E0ABE21C
:10107000B0E02CE230E08E010F5F1F4F0F2EF3E146
:10108000EF2EFF24F02D8C918823ECF7F90180815D
:101090008D3079F08A3069F0AB014F5F5F4F44319A
:1010A000510508F0A701F801E60FF71F8083BA0188
:1010B000EACFCE010196FC01E60FF71F10820E94D5
:1010C000B01964960FB6F894DEBF0FBECDBFCF91B6
:1010D000DF911F910F91FF90EF900895181614F46F
:1010E000880F82B98CE080B9E1E2F0E080818E7FE8
:1010F000808380818D7F8083E6E5F0E0808180645D
:1011000080838081846080830895E6E5F0E08081BB
:101110008062808380818068808380818823ECF76F
:10112000E1E2F0E08081887F8830E1F70895E6E52C
:10113000F0E0808180618083808180688083089571
:10114000E6E5F0E080818062808380818068808332
:1011500080818823ECF7E1E2F0E08081887F8031B4
:10116000E1F708951816C4F4880FE3E2F0E08083F5
:1011700080818E7F8083E6E5F0E080818F7D8083B3
:1011800080818068808380818823ECF7E1E2F0E051
:101190008081887F8831E1F708951816C4F4880F9C
:1011A000E3E2F0E08083808181608083E6E5F0E027
:1011B00080818F7D80838081806880838081882387
:1011C000ECF7E1E2F0E08081887F8034E1F7089578
:1011D00083B9E6E5F0E080818068808380818823A0
:1011E000ECF7E1E2F0E08081887F8832E1F7089552
:1011F000DC01E6E5F0E080818F7B8083109771F061
:1012000080818068808380818823ECF7E1E2F0E0D0
:101210008081887F8835E1F783B18C93E6E5F0E043
:101220008081806480830895DC01009781F0E6E589
:10123000F0E080818068808380818823ECF7E1E2A0
:10124000F0E08081887F8035E1F783B18C93089549
:10125000E5E4F0E080818E7F808380818D7F8083D4
:1012600080818B7F8083089584BD0895A0E0B0E0E5
:10127000BC01CD0128EE33E040E050E00E94381977
:101280000E9457193093B9012093B8010895089529
:10129000009721F09093BB018093BA010895E5E493
:1012A000F0E080818860808380818F7B8083E9E5A6
:1012B000F0E080818068808389EF83BD0895E5E454
:1012C000F0E080818E7F808380818D7F808380812C
:1012D0008460808308951F920F920FB60F9211249D
:1012E0002F933F934F935F936F937F938F939F932E
:1012F000AF93BF93EF93FF938091BE019091BF0195
:1013000001969093BF018093BE01815D934039F4B3
:1013100081E70E9434091092BF011092BE01FF9133
:10132000EF91BF91AF919F918F917F916F915F915D
:101330004F913F912F910F900FBE0F901F901895D6
:101340001F920F920FB60F9211242F933F934F933A
:101350005F936F937F938F939F93AF93BF93EF931D
:10136000FF938091BC019091BD0101969093BD01C6
:101370008093BC012091B8013091B9018217930785
:1013800059F41092BD011092BC01E091BA01F091A4
:10139000BB01309709F00995FF91EF91BF91AF9193
:1013A0009F918F917F916F915F914F913F912F917D
:1013B0000F900FBE0F901F901895EEE4F0E0808123
:1013C0008E7F808380818D7F808380818B7F8083EF
:1013D00008959BBD8ABD08959C0140E050E060E9FE
:1013E00070ED83E090E00E9457192150304037BDE6
:1013F00026BD0895AFE4B0E08C918E7F8C938C91E4
:1014000082608C93EEE4F0E080818860808380814C
:10141000806180838C918F7B8C938C9180688C937E
:1014200082E390E00E94EC090895EF92FF920F93FF
:101430001F937B018C0120E030E048EC52E40E94D5
:10144000250418164CF1C801B70120E030E040E057
:1014500050E00E94C503882319F41BBC1ABC1CC0B1
:1014600066B577B56F5F7F4F80E090E00E9407051B
:10147000A80197010E941F0220E030E048EC52E4EE
:101480000E94190320E030E040E85FE30E94C101C0
:101490000E9449007BBD6ABD1F910F91FF90EF90A4
:1014A0000895EEE4F0E08081816080838081826035
:1014B000808380818B7F80830895E3E5F0E08081E5
:1014C0008E7F808380818D7F808380818B7F8083EE
:1014D000089582BF0895A0E0B0E0BC01CD0128EEE0
:1014E00033E040E050E00E943819672F782F892FB1
:1014F00099277093C1016093C001089508950097E2
:1015000021F09093C7018093C6010895009721F0C0
:101510009093C3018093C2010895E3E5F0E08081D8
:10152000877F808380818F7B8083E9E5F0E0808105
:101530008160808380E00E94690A0895E3E5F0E01D
:1015400080818160808380818260808380818B7FC5
:10155000808308951F920F920FB60F9211242F933C
:101560003F934F935F936F937F938F939F93AF932B
:10157000BF93EF93FF938091C8019091C9010196A9
:101580009093C9018093C801069761F412BE10922E
:10159000C9011092C801E091C601F091C7013097CE
:1015A00009F00995FF91EF91BF91AF919F918F91B4
:1015B0007F916F915F914F913F912F910F900FBE4F
:1015C0000F901F9018951F920F920FB60F92112433
:1015D0002F933F934F935F936F937F938F939F933B
:1015E000AF93BF93EF93FF938091C4019091C50196
:1015F00001969093C5018093C4012091C001309160
:10160000C1018217930759F41092C5011092C401C9
:10161000E091C201F091C301309709F00995FF9163
:10162000EF91BF91AF919F918F917F916F915F915A
:101630004F913F912F910F900FBE0F901F901895D3
:10164000EDE2F0E080818F7E808380818062808304
:1016500080818860808380818460808380818064D1
:1016600080830895982FDB016115710569F0EEE222
:10167000F0E0808186FDFDCF9FB9EEE2F0E0808151
:101680008823ECF78FB18C930895982F611571051D
:1016900079F0EDE2F0E08081806880837093CB0187
:1016A0006093CA01EEE2F0E0808186FDFDCF9FB934
:1016B00008951F920F920FB60F9211242F933F930C
:1016C0004F935F936F937F938F939F93AF93BF934A
:1016D000EF93FF93E091CA01F091CB01309711F0A5
:1016E0008FB10995FF91EF91BF91AF919F918F912C
:1016F0007F916F915F914F913F912F910F900FBE0E
:101700000F901F9018954F925F926F927F928F92D9
:101710009F92AF92BF92CF92DF92EF92FF920F9380
:101720001F93CF93DF93FC0140E050E00F2EF7E3CF
:10173000EF2EFF24F02D61E070E00F2EF8E38F2EE6
:101740009924F02D0AE310E00F2EFBE36F2E77248F
:10175000F02DC4E3D0E00F2EF5E3AF2EBB24F02D27
:101760000F2EF1E34F2E5524F02D0F2EF2E3CF2E46
:10177000DD24F02D8081813051F1813038F08230CC
:1017800009F446C0833009F082C061C08281813093
:1017900061F4D8012C91CB01018002C0880F991F00
:1017A0000A94E2F7282B2C9372C0D8013C91CB010C
:1017B000018002C0880F991F0A94E2F7282F209514
:1017C00023232C93D3012C91822B8C9360C0828194
:1017D000813061F4D7012C91CB01018002C0880FC8
:1017E000991F0A94E2F7282B2C9351C0D7013C9102
:1017F000CB01018002C0880F991F0A94E2F7282FBD
:10180000209523232C93D4012C91822B8C933FC0C1
:101810008281813059F42881CB01018002C0880F78
:10182000991F0A94E2F7282B288331C03881CB0115
:10183000018002C0880F991F0A94E2F7282F209593
:1018400023232883D5012C91822B8C9320C0828165
:10185000813061F4D2012C91CB01018002C0880F4C
:10186000991F0A94E2F7282B2C9311C0D2013C91C6
:10187000CB01018002C0880F991F0A94E2F7282F3C
:10188000209523232C93D6012C91822B8C934F5F90
:101890005F4F33964032510509F06CCFDF91CF9105
:1018A0001F910F91FF90EF90DF90CF90BF90AF907E
:1018B0009F908F907F906F905F904F900895482FEA
:1018C000869586958695813031F1813038F0823069
:1018D00009F442C0833009F080C05FC0613069F410
:1018E000EAE3F0E0208181E090E002C0880F991FD8
:1018F0004A95E2F7282B20830895EAE3F0E020815F
:1019000081E090E002C0880F991F4A95E2F7809528
:10191000822380830895613079F4E7E3F0E0208149
:10192000342F377081E090E002C0880F991F3A95FC
:10193000E2F7282B20830895E7E3F0E03081242F9D
:10194000277081E090E002C0880F991F2A95E2F786
:101950008095832380830895613079F4E4E3F0E097
:101960002081342F377081E090E002C0880F991FEA
:101970003A95E2F7282B20830895E4E3F0E03081E4
:10198000242F277081E090E002C0880F991F2A95CC
:10199000E2F78095832380830895613079F4E1E351
:1019A000F0E02081342F377081E090E002C0880F92
:1019B000991F3A95E2F7282B20830895E1E3F0E0A0
:1019C0003081242F277081E090E002C0880F991F9A
:1019D0002A95E2F78095832380830895EFE4F0E071
:1019E00080818E7F808380818D7F8083EEE4F0E034
:1019F0008081877F808380818F7E808380818064E7
:101A00008083A9E5B0E08C9180628C9380818160B5
:101A1000808380818260808380818B7F8083089532
:101A2000CF92DF92EF92FF920F931F93CF93DF93AA
:101A3000EC010097E9F06091D0017091D101C09064
:101A4000D001D090D101E090D201F090D30180E09C
:101A500090E024E630E040E050E00E943819EC0CC1
:101A6000FD1C00E010E0A80197010E94571928838F
:101A7000DF91CF911F910F91FF90EF90DF90CF906A
:101A80000895CF93DF93EC010097B1F08091D001DE
:101A90009091D1012091D2013091D301280F391FAB
:101AA00040E050E060E472E48FE090E00E9457195B
:101AB000288339834A835B83DF91CF9108952091F6
:101AC000D0013091D10140E050E0622F732F842F7C
:101AD000952F08951F920F920FB60F9211242F93F6
:101AE0003F934F935F938F939F93EF93FF9326B50D
:101AF00037B53093CD012093CC0180916B018130BB
:101B0000C9F48091CE019091CF01A901481B590BD6
:101B1000CA01880F991F880F991F9093D301809352
:101B2000D201EEE4F0E080818F7B808382E08093BD
:101B30006B011AC08230C1F48091CE019091CF0127
:101B4000A901481B590BCA01880F991F880F991FBB
:101B50009093D1018093D001EEE4F0E08081806425
:101B6000808381E080936B0186B597B59093CF0118
:101B70008093CE01FF91EF919F918F915F914F9153
:101B80003F912F910F900FBE0F901F901895EFE58A
:101B9000F0E08081806880830895EFE5F0E0808147
:101BA0008F7780830895813081F1813020F08230F9
:101BB00009F062C054C06230F9F06330A1F06130C6
:101BC00049F0E5E5F0E0808181608083808182607A
:101BD00080830895E5E5F0E080818E7F80838081B9
:101BE000826080830895E5E5F0E0808181608083F4
:101BF00080818D7F80830895E5E5F0E080818E7F90
:101C0000808380818D7F808308956230F9F0633016
:101C1000A1F0613049F0E5E5F0E0808184608083E7
:101C20008081886080830895E5E5F0E080818B7F86
:101C300080838081886080830895E5E5F0E080817D
:101C4000846080838081877F80830895E5E5F0E06C
:101C500080818B7F80838081877F8083089561303E
:101C600031F0E4E5F0E08081806480830895E4E56C
:101C7000F0E080818F7B80830895813059F081303E
:101C800018F0823091F40CC0EBE5F0E080818064C4
:101C900080830895EBE5F0E080818068808308957B
:101CA000EBE5F0E08081806280830895813059F017
:101CB000813018F0823091F40CC0EBE5F0E08081C7
:101CC0008F7B80830895EBE5F0E080818F778083C0
:101CD0000895EBE5F0E080818F7D80830895009783
:101CE00021F09093D9018093D8010895009721F0B5
:101CF0009093D7018093D6010895009721F0909397
:101D0000D5018093D40108951F920F920FB60F92C0
:101D100011242F933F934F935F936F937F938F93F0
:101D20009F93AF93BF93EF93FF93E091D801F0910E
:101D3000D901309709F00995FF91EF91BF91AF91CB
:101D40009F918F917F916F915F914F913F912F91D3
:101D50000F900FBE0F901F9018951F920F920FB605
:101D60000F9211242F933F934F935F936F937F9321
:101D70008F939F93AF93BF93EF93FF93E091D6011F
:101D8000F091D701309709F00995FF91EF91BF913C
:101D9000AF919F918F917F916F915F914F913F9103
:101DA0002F910F900FBE0F901F9018951F920F92BA
:101DB0000FB60F9211242F933F934F935F936F931E
:101DC0007F938F939F93AF93BF93EF93FF93E09194
:101DD000D401F091D501309709F00995FF91EF9169
:101DE000BF91AF919F918F917F916F915F914F9133
:101DF0003F912F910F900FBE0F901F901895482F75
:101E0000869586958695813031F1813038F0823023
:101E100009F442C0833009F080C05FC0613069F4CA
:101E2000EBE3F0E0208181E090E002C0880F991F91
:101E30004A95E2F7282B20830895EBE3F0E0208118
:101E400081E090E002C0880F991F4A95E2F78095E3
:101E5000822380830895613079F4E8E3F0E0208103
:101E6000342F377081E090E002C0880F991F3A95B7
:101E7000E2F7282B20830895E8E3F0E03081242F57
:101E8000277081E090E002C0880F991F2A95E2F741
:101E90008095832380830895613079F4E5E3F0E051
:101EA0002081342F377081E090E002C0880F991FA5
:101EB0003A95E2F7282B20830895E5E3F0E030819E
:101EC000242F277081E090E002C0880F991F2A9587
:101ED000E2F78095832380830895613079F4E2E30B
:101EE000F0E02081342F377081E090E002C0880F4D
:101EF000991F3A95E2F7282B20830895E2E3F0E05A
:101F00003081242F277081E090E002C0880F991F54
:101F10002A95E2F78095832380830895282F86955C
:101F200086958695813089F0813030F08230B9F025
:101F30008330F9F080E0089589B390E002C0959570
:101F400087952A95E2F78170089586B390E027700F
:101F500002C0959587952A95E2F78170089583B31D
:101F600090E0277002C0959587952A95E2F78170D9
:101F7000089580B390E0277002C0959587952A95C3
:101F8000E2F781700895382F869586958695813081
:101F9000F9F0813038F08230A9F1833009F44CC077
:101FA00080E00895EBE3F0E0208181E090E0032EF3
:101FB00002C0880F991F0A94E2F7282720838081A6
:101FC00090E002C0959587953A95E2F78170089563
:101FD000E8E3F0E04081232F30E02770307081E0AB
:101FE00090E0022E02C0880F991F0A94E2F748275A
:101FF0004083808190E002C0959587952A95E2F70D
:1020000081700895E5E3F0E04081232F30E02770F0
:10201000307081E090E0022E02C0880F991F0A9470
:10202000E2F748274083808190E002C0959587952C
:102030002A95E2F781700895E2E3F0E04081232FD2
:1020400030E02770307081E090E0022E02C0880FEF
:10205000991F0A94E2F748274083808190E002C0EC
:10206000959587952A95E2F781700895813051F012
:10207000813030F0823041F0833041F080E00895CB
:1020800089B3089586B3089583B3089580B30895FE
:10209000813049F0813028F0823039F0833041F4CA
:1020A00006C06BBB089568BB089565BB089562BB0D
:1020B0000895E7E2F0E080818064808380818F77FB
:1020C0008083808180628083E6E2F0E080818160AD
:1020D000808380818260808380818460808380812E
:1020E000806880830895833009F44AC0843028F4DE
:1020F000813011F1823090F50DC0853009F464C053
:10210000853008F44FC0863009F470C0873009F07C
:1021100090C07EC0E7E2F0E080818E7F8083808186
:102120008D7F808380818B7F80838081877F808388
:1021300080818F7E80837DC0E7E2F0E080818160D6
:10214000808380818D7F808380818B7F808380816D
:10215000877F808380818F7E80836BC0E7E2F0E0A1
:1021600080818E7F808380818260808380818B7F6D
:1021700080838081877F808380818F7E808359C028
:10218000E7E2F0E0808181608083808182608083EB
:1021900080818B7F80838081877F808380818F7E19
:1021A000808347C0E7E2F0E080818E7F808380817A
:1021B0008D7F80838081846080838081877F80831E
:1021C00080818F7E808335C0E7E2F0E0808181608E
:1021D000808380818D7F8083808184608083808103
:1021E000877F808380818F7E808323C0E7E2F0E059
:1021F00080818E7F80838081826080838081846003
:1022000080838081877F808380818F7E808311C0DF
:10221000E7E2F0E08081816080838081826080835A
:102220008081846080838081877F808380818F7EAE
:102230008083E6E2F0E0808180648083808186FD97
:10224000FDCF84B1829586958695837090E025B107
:1022500030E0220F331F220F331F282B392B822F00
:10226000932F08950E945F0D2AE330E040E050E094
:102270000E945719822F932F08951F93182F61E002
:102280000E94FF0E85E38A95F1F7812F60E00E949E
:10229000FF0E28E532E040E951E0CA010197F1F76D
:1022A00021503040D1F71F910895CF92DF92EF92E5
:1022B000FF921F93CF93DF9310E00F2EFCEECF2EF3
:1022C000F1E0DF2EF02D0F2EF0EEEF2EF1E0FF2EDD
:1022D000F02DC12FD0E0CE01880F991F880F991FD4
:1022E000880F991F8C1B9D0BF601E80FF91F408189
:1022F00051814115510571F1CE01880F991FF701E8
:10230000E80FF91F2081318121153105C9F4FA0147
:102310000995CE01880F991FD701A80FB91FCE01CB
:10232000880F991F880F991F880F991F8C1B9D0B71
:10233000F601E80FF91F828193818D939C930AC067
:10234000CE01880F991FF701E80FF91FC901019706
:10235000918380831F5F8091DA01811708F0B9CFE4
:10236000DF91CF911F91FF90EF90DF90CF90089574
:10237000CF92DF92EF92FF921F93CF93DF93182FAC
:102380006B017A01E9016091DA01462F50E01416E1
:1023900015060CF042C08091F201811779F0E9EF47
:1023A000F1E020E030E004C080813796811731F001
:1023B0002F5F3F4F24173507BCF32FC0212F30E08C
:1023C000CA010197281739073CF5C901880F991FE1
:1023D000880F991F880F991F821B930BFC01EE50E9
:1023E000FE4FAC0140955095862F90E0280F391F85
:1023F000C901880F991F880F991F880F991F821B89
:10240000930B84519E4F480F591F80818F5F8083AB
:102410003796E417F507C9F71F5F812F90E0DC01BD
:10242000AA0FBB1FAA0FBB1FAA0FBB1FA81BB90B6C
:10243000A451BE4FFD01E192F192D182C082169665
:102440001C9316971596DC93CE931497880F991FBB
:1024500080529E4FFC01D183C083862F8F5F809373
:10246000DA01DF91CF911F91FF90EF90DF90CF9035
:1024700008950E948D0A0E949E0A85E591E10E94BE
:102480007F0A08950E94DD0908951F93182F8091F7
:10249000DB01882329F40E94FA0981E08093DB01A3
:1024A000612F70E0882777FD8095982F0E94550452
:1024B00029E33EE843EE5CE30E941F0220E030E0A7
:1024C00040EA50E40E94F2010E94150A0E94510A5B
:1024D0001F910895EF92FF921F93182F83E060E001
:1024E0000E94FF0E612F62956F70617088E00E94FC
:1024F000FF0E612F629566956770617089E00E949A
:10250000FF0E612F629566956695637061708AE033
:102510000E94FF0E612F661F6627661F8CE00E94D7
:10252000FF0E82E061E00E94FF0E0F2EF0EAEF2E18
:10253000FFE0FF2EF02DC7010197F1F782E060E088
:102540000E94FF0EC7010197F1F7612F617088E0CB
:102550000E94FF0E612F6695617089E00E94FF0E58
:10256000612F6695669561708AE00E94FF0E169550
:102570001695169511708CE0612F0E94FF0E82E077
:1025800061E00E94FF0EC7010197F1F782E060E071
:102590000E94FF0EC7010197F1F71F91FF90EF9086
:1025A00008956150823089F0833018F4813021F52C
:1025B00005C0833091F08430F9F417C0862F80581D
:1025C0000E946A121092DC010895862F80540E94A6
:1025D0006A1284E18093DC010895862F8C560E9454
:1025E0006A1288E28093DC010895862F8C520E9443
:1025F0006A128CE38093DC01089581E00E946A12E4
:102600001092DC0181E061E00E94D11208950F93E5
:102610001F9324EF31E040E951E0CA010197F1F73F
:1026200021503040D1F782E00E946A1288E20E9475
:102630006A1200EA1FE0C8010197F1F78FE00E94DB
:102640006A12C8010197F1F781E00E946A1280E4E2
:102650009FE10197F1F786E00E946A12C801019795
:10266000F1F78CE00E946A1280E80E946A121F91C2
:102670000F910895EF92FF921F93182F83E061E06E
:102680000E94FF0E612F62956F70617088E00E945A
:10269000FF0E612F629566956770617089E00E94F8
:1026A000FF0E612F629566956695637061708AE092
:1026B0000E94FF0E612F661F6627661F8CE00E9436
:1026C000FF0E82E061E00E94FF0E0F2EF0EAEF2E77
:1026D000FFE0FF2EF02DC7010197F1F782E060E0E7
:1026E0000E94FF0EC7010197F1F7612F617088E02A
:1026F0000E94FF0E612F6695617089E00E94FF0EB7
:10270000612F6695669561708AE00E94FF0E1695AE
:102710001695169511708CE0612F0E94FF0E82E0D5
:1027200061E00E94FF0EC7010197F1F782E060E0CF
:102730000E94FF0EC7010197F1F71F91FF90EF90E4
:1027400008951F93182F862F642F0E94D112812F76
:102750000E943A131F910895DF92EF92FF920F9318
:102760001F93CF93DF93E82ED62E8A01F22E822F6D
:10277000880F880F880F805C0E946A12C0E0D0E04A
:10278000F801EC0FFD1F80810E943A132196C8309A
:10279000D105B1F78F2D6E2D4D2D0E94A113DF9124
:1027A000CF911F910F91FF90EF90DF9008951F93AD
:1027B000182F8091DC01843129F482E061E00E94CD
:1027C000D11216C0883229F483E061E00E94D11250
:1027D0000FC08C3329F484E061E00E94D11208C05C
:1027E000803531F481E061E00E94D1121092DC0169
:1027F000812F0E943A138091DC018F5F8093DC016E
:102800001F910895CF92DF92EF92FF920F931F9343
:10281000CF93DF93FC0120812223E9F07C010F2E6E
:10282000F4EFCF2EF1E0DF2EF02DC0E9D1E0CE01A4
:102830000C2F192F822F0E94D7139601CE010197DA
:10284000F1F721503040D1F7F70121810894E11CC4
:10285000F11C222379F7DF91CF911F910F91FF9007
:10286000EF90DF90CF900895CF93DF93EC018881B4
:10287000882331F00E94D713219688818823D1F7CD
:10288000DF91CF9108950F931F938C01862F642FB2
:102890000E94D112C8010E9434141F910F91089513
:1028A0000F931F93DF93CF93CDB7DEB727970FB664
:1028B000F894DEBF0FBECDBF2DB73EB728503040D5
:1028C0000FB6F8943EBF0FBE2DBFEDB7FEB73196E1
:1028D0009E012F5F3F4F3183208327E030E0338319
:1028E000228320E630E035832483978386830E9409
:1028F000D6198981EDB7FEB738960FB6F894FEBFAA
:102900000FBEEDBF882351F08E010E5F1F4F0E9456
:10291000D713F80181918F018823C9F727960FB645
:10292000F894DEBF0FBECDBFCF91DF911F910F9105
:10293000089580E161E00E94FF0E81E161E00E9464
:10294000FF0E82E161E00E94FF0E83E161E00E94E0
:10295000FF0E08954F925F927F928F929F92AF9257
:10296000BF92CF92DF92EF92FF920F931F93DF936C
:10297000CF9300D000D0CDB7DEB72C0180E18983A2
:1029800081E18A8382E18B8383E18C8300E010E024
:102990005E010894A11CB11C0F2EF4E19F2EF02DB6
:1029A0000F2EF5E18F2EF02D0F2EF6E17F2EF02D5C
:1029B0006801F501E00FF11FE0808E2D60E00E94BC
:1029C000FF0EF92C892D0E948E0F882319F480E0C8
:1029D00090E01DC0F82C882D0E948E0F882319F4DA
:1029E00081E090E014C0F72C872D0E948E0F882381
:1029F00019F482E090E00BC087E10E948E0F8823DB
:102A0000C1F483E090E00F2EF7E1FF2EF02DF601E8
:102A1000EE0FFF1FEE0FFF1FE80FF91FE855FE4FE7
:102A20008081F20180838F2D0E948E0F8823D9F33D
:102A30000DC08E2D61E00E94FF0E0F5F1F4F04300E
:102A4000110509F0B5CF84E5F20180830F900F9056
:102A50000F900F90CF91DF911F910F91FF90EF900A
:102A6000DF90CF90BF90AF909F908F907F905F90BE
:102A70004F900895AF92BF92CF92DF92EF92FF9264
:102A80000F931F93CF93DF93182F6B01F42E092F11
:102A900000650E948508802F0E94B208812F0E9445
:102AA000E8080E94A008802F0E94CD08CF2DD0E01A
:102AB0001C161D06E4F400E010E07E010894E10815
:102AC000F1080F2EF6E5AF2EBB24F02DC601800FC6
:102AD000911F0E941409E016F10621F4F50180818E
:102AE0008F7B80830F5F1F4F0C171D077CF30E94A5
:102AF000970880E29EE40197F1F7DF91CF911F9153
:102B00000F91FF90EF90DF90CF90BF90AF9008951E
:102B1000CF92DF92FF920F931F93CF93DF93182FE3
:102B2000092F6B01F42E0E948508802F80650E947A
:102B3000B208812F0E94E808CF2DD0E01C161D0698
:102B40006CF400E010E0F601E00FF11F80810E94BC
:102B5000E8080F5F1F4F0C171D07ACF30E94970882
:102B600080E29EE40197F1F7DF91CF911F910F91E1
:102B7000FF90DF90CF900895FF920F931F93182F2F
:102B8000092FF62E0E948508802F80650E94B208CA
:102B9000812F0E94E8088F2D0E94E8080E94970864
:102BA00080E29EE40197F1F71F910F91FF90089545
:102BB0000F931F93CF93DF93082FEB0161157105DE
:102BC000C1F0192F10650E948508812F0E94B2085C
:102BD000802F0E94E8080E94A008812F0E94CD0843
:102BE000CE010E94F8080E94970880E29EE40197B7
:102BF000F1F7DF91CF911F910F9108958FEF0E9410
:102C00006E0808950E945D0A1092DD018EE060E07A
:102C10000E94FF0E08951F93182F8091DD018823D5
:102C200029F40E948D0A81E08093DD01812F0E94AA
:102C30007E0A0E949E0A1F9108951F93182F8EE00E
:102C400061E00E94FF0E84E60E940B16113019F01D
:102C5000123051F405C08DE061E00E94FF0E04C007
:102C60008DE060E00E94FF0E1F9108951F93182FC2
:102C70006130C9F0613030F0623031F1633009F019
:102C800044C033C0EBE3F0E08081877F80838081A4
:102C900084608083E8E3F0E08081806280838081CB
:102CA0008064808332C0EBE3F0E0808188608083C1
:102CB00080818B7F8083E8E3F0E080818062808385
:102CC00080818064808321C0EBE3F0E080818860B4
:102CD0008083808184608083E8E3F0E080818F7D61
:102CE000808380818064808310C0EBE3F0E080818A
:102CF00088608083808184608083E8E3F0E0808165
:102D00008062808380818F7B80831A30D0F4612F32
:102D1000617088E00E94FF0E612F6695617089E006
:102D20000E94FF0E612F6695669561708AE00E9491
:102D3000FF0E612F66956695669561708CE00E9426
:102D4000FF0E1F910895CF93DF93C82FD0E082E14B
:102D50000E943D110E94321190931A028093190231
:102D60008C179D07A0F7CFEDD1E085E1BE010E9451
:102D7000320B8091DF018635C1F7DF91CF91089545
:102D80008F929F92AF92BF92CF92DF92EF92FF927B
:102D90000F931F93CF93DF931092DE01EE24FF2455
:102DA00087010F2EF8E88F2EF3E19F2EF02DC0E95A
:102DB000D1E0AA24BB24650102C08601750180917F
:102DC0002102882391F487E161E00E94FF0E87E0F1
:102DD00061E00E94FF0E9401CE010197F1F72150AE
:102DE0003040D1F781E08093210283E10E943D11C0
:102DF0000E94321190931E0280931D02853191052D
:102E000030F00894E11CF11C011D111D02C0449713
:102E1000A0F288E2E816F1040105110581F6CFED74
:102E2000D1E086E6BE010E94320B8091DF0186353B
:102E3000C1F71092210287E160E00E94FF0E87E057
:102E400060E00E94FF0E86E161E00E94FF0E86E0D6
:102E500061E00E94FF0E28E833E140E951E0CA0139
:102E60000197F1F721503040D1F788E20E94A31674
:102E700084E10E94A31684E10E94A3161092DE0151
:102E800086E160E00E94FF0E86E060E00E94FF0E97
:102E9000EDE2F0E0808180688083DF91CF911F9127
:102EA0000F91FF90EF90DF90CF90BF90AF909F90E9
:102EB0008F900895CF93DF93823021F0833009F013
:102EC00084C1C2C080911C028823E9F484E161E0DE
:102ED0000E94FF0E84E061E00E94FF0E85E161E048
:102EE0000E94FF0E85E061E00E94FF0E28E833E1BA
:102EF00040E951E0CA010197F1F721503040D1F784
:102F000081E080931C0280E10E943D110E943211F9
:102F1000909317028093160281E10E943D110E9456
:102F200032119093200280931F0284E061E00E949E
:102F3000D11280911602909117020E9450148FE5D1
:102F40000E94D71380911F02909120020E9450147A
:102F50008091160290911702449708F036C1809133
:102F60001F02909120024497B8F51092DE0184E18F
:102F700060E00E94FF0E84E060E00E94FF0E85E1A9
:102F800060E00E94FF0E85E060E00E94FF0E10925C
:102F90001C02EDE2F0E080818F77808381E060E0C9
:102FA0000E94FF0ECFEDD1E086E6BE010E94320BFB
:102FB0008091DF018635C1F7EDE2F0E08081806825
:102FC000808381E061E00E94FF0E80911602909163
:102FD0001702449708F0F9C080911F0290912002D7
:102FE000C39708F4F2C01092DE0110921C0284E133
:102FF00060E00E94FF0E84E060E00E94FF0E85E129
:1030000060E00E94FF0E85E060E00E94FF0EEDE2AE
:10301000F0E080818F77808381E060E00E94FF0E86
:10302000CFEDD1E087E7BE010E94320B8091DF0136
:103030008635C1F7EDE2F0E080818068808381E031
:1030400061E00E94FF0EC1C0809118028823E9F45C
:1030500084E161E00E94FF0E84E061E00E94FF0EC7
:1030600087E161E00E94FF0E87E061E00E94FF0EB1
:1030700028E833E140E951E0CA010197F1F7215016
:103080003040D1F781E08093180280E10E943D1129
:103090000E943211909317028093160283E10E94DE
:1030A0003D110E94321190931E0280931D0284E014
:1030B00061E00E94D11280911602909117020E9445
:1030C00050148FE50E94D71380911D0290911E022B
:1030D0000E9450148091160290911702449708F0B4
:1030E00074C080911D0290911E024497B0F5109219
:1030F000DE0184E160E00E94FF0E84E060E00E9457
:10310000FF0E87E160E00E94FF0E87E060E00E9412
:10311000FF0E10921802EDE2F0E080818F7780833D
:1031200081E060E00E94FF0ECFEDD1E086E6BE01B7
:103130000E94320B8091DF018635C1F7EDE2F0E0AD
:1031400080818068808381E061E00E94FF0E809131
:103150001602909117024497C0F580911D0290913C
:103160001E02459790F11092DE011092180284E140
:1031700060E00E94FF0E84E060E00E94FF0E87E1A5
:1031800060E00E94FF0E87E060E00E94FF0E0E9458
:10319000FD12EDE2F0E080818F77808381E060E0D6
:1031A0000E94FF0ECFEDD1E088E8BE010E94320BF5
:1031B0008091DF018635C1F7EDE2F0E08081806823
:1031C000808381E061E00E94FF0EDF91CF9108953E
:1031D0001F93182F0E94FD12812F90E00E9450141F
:1031E000153391F0193919F0143389F409C081E0CD
:1031F0008093DE01EDE2F0E080818F77808307C06D
:1032000082E08093DE0103C083E08093DE011F91A2
:1032100008958CE691E00E94830B0E94C70D0E94E6
:1032200007130E94EE0C0E94200B0E94071381E0FE
:1032300061E00E94FF0E80E293E00197F1F780E0E9
:1032400068EE78E10E94450B8091DE01823029F022
:10325000833039F08130D1F708C082E00E945A17DC
:10326000F3CF83E00E945A17EFCF0E94C016ECCF35
:10327000629FD001739FF001829FE00DF11D649F5A
:10328000E00DF11D929FF00D839FF00D749FF00DE6
:10329000659FF00D9927729FB00DE11DF91F639F87
:1032A000B00DE11DF91FBD01CF0111240895A1E268
:1032B0001A2EAA1BBB1BFD010DC0AA1FBB1FEE1FB0
:1032C000FF1FA217B307E407F50720F0A21BB30BFB
:1032D000E40BF50B661F771F881F991F1A9469F777
:1032E00060957095809590959B01AC01BD01CF01D3
:1032F00008952F923F924F925F926F927F928F929A
:103300009F92AF92BF92CF92DF92EF92FF920F9374
:103310001F93CF93DF93CDB7DEB7CA1BDB0B0FB67E
:10332000F894DEBF0FBECDBF09942A88398848883B
:103330005F846E847D848C849B84AA84B984C884D1
:10334000DF80EE80FD800C811B81AA81B981CE0FC8
:10335000D11D0FB6F894DEBF0FBECDBFED010895AD
:10336000FC0188279927E89421912032E9F329303C
:1033700010F02E30C8F32B3241F02D3239F468941E
:1033800004C00E94CE19820F911D219120532A3032
:10339000C0F31EF4909581959F4F08957AE0979F12
:1033A000902D879F802D910D11240895AEE0B0E0FF
:1033B000ECEDF9E10C9487190D891E898F89988DA0
:1033C00097FF02C080E090E801979E838D831A8367
:1033D000098386E08C839E01255E3F4FCE010196D6
:1033E000698D7A8DA9010E94071A4D815E8157FD72
:1033F0000AC02F813885421753070CF49A01020F37
:10340000131FF80110822E96E4E00C94A319ABE090
:10341000B0E0EDE0FAE10C9479193C012B015A017E
:10342000FC0117821682838181FD03C06FEF7FEF5D
:10343000C6C19AE0892E1E010894211C311CF3019B
:103440002381F20123FD859123FF81912F018823A0
:1034500009F4B2C1853239F423FD859123FF8191AE
:103460002F01853229F490E0B3010E94FA1BE7CFC7
:10347000982FFF24EE249924FFE1FF15D0F09B3212
:1034800069F09C3228F4903259F0933291F40EC0D6
:103490009D3249F0903369F441E024C052E0F52AAE
:1034A00084E0F82A28C098E0F92A25C0E0E1FE2A45
:1034B00022C0F7FC29C0892F80538A3070F4F6FEB1
:1034C00005C0989C902C1124980E15C0E89CE02C07
:1034D0001124E80EF0E2FF2A0EC09E3229F4F6FC19
:1034E0006BC140E4F42A07C09C3619F450E8F52A71
:1034F00002C0983649F4F20123FD959123FF919182
:103500002F01992309F0B8CF892F8554833018F003
:103510008052833038F444E050E0A40EB51E5FE3DF
:1035200059830FC0933631F0933779F0933509F012
:1035300056C020C0F5018081898342E050E0A40E8E
:10354000B51E610101E010E012C0F501C080D1801C
:10355000F6FC03C06FEF7FEF02C0692D70E042E020
:1035600050E0A40EB51EC6010E94EF1B8C015FE760
:10357000F52214C0F501C080D180F6FC03C06FEFC6
:103580007FEF02C0692D70E042E050E0A40EB51E4E
:10359000C6010E94E41B8C0150E8F52AF3FE07C027
:1035A0001AC080E290E0B3010E94FA1BEA948E2DCB
:1035B00090E008171907A8F30EC0F601F7FC8591F3
:1035C000F7FE81916F0190E0B3010E94FA1BE110B8
:1035D000EA94015010400115110579F7EAC09436BC
:1035E00011F0993669F5F7FE08C0F50120813181A7
:1035F0004281538184E090E00AC0F501808191818D
:103600009C01442737FD4095542F82E090E0A80E9E
:10361000B91E9FE6F92257FF09C050954095309595
:1036200021953F4F4F4F5F4FE0E8FE2ACA01B90195
:10363000A1012AE030E00E94261CD82ED21840C0FA
:10364000953729F41F2D1F7E2AE030E01DC01F2D65
:10365000197F9F3661F0903720F4983509F0ACC09F
:103660000FC0903739F0983709F0A6C004C028E0A1
:1036700030E00AC0106114FD146020E130E004C0A5
:1036800014FD166020E132E017FF08C0F5016081EB
:1036900071818281938144E050E008C0F50180810E
:1036A0009181BC0180E090E042E050E0A40EB51EA4
:1036B000A1010E94261CD82ED2188FE7F82EF122E5
:1036C000F6FE0BC05EEFF522D91438F4F4FE07C005
:1036D000F2FC05C08FEEF82202C01D2D01C0192D8D
:1036E000F4FE0DC0FE01ED0DF11D8081803319F453
:1036F00099EEF92208C01F5FF2FE05C003C08F2DAE
:10370000867809F01F5F0F2DF3FC14C0F0FE0FC088
:103710001E1510F09D2C0BC09D2C9E0C911A1E2D79
:1037200006C080E290E0B3010E94FA1B1F5F1E15E5
:10373000C0F304C01E1510F4E11A01C0EE2404FF0A
:103740000FC080E390E0B3010E94FA1B02FF1DC08E
:1037500001FD03C088E790E00EC088E590E00BC053
:10376000802F867891F001FF02C08BE201C080E2D9
:10377000F7FC8DE290E0B3010E94FA1B06C080E3E3
:1037800090E0B3010E94FA1B9A94D914C0F3DA9422
:10379000F101ED0DF11D808190E0B3010E94FA1B53
:1037A000DD20A9F706C080E290E0B3010E94FA1B79
:1037B000EA94EE20C1F743CEF30166817781CB0115
:1037C0002B96E2E10C949519FC0105906150704034
:1037D0000110D8F7809590958E0F9F1F0895FC01DA
:1037E0006150704001900110D8F7809590958E0F30
:1037F0009F1F08950F931F93CF93DF938C01EB01CD
:103800008B8181FF1BC082FF0DC02E813F818C8187
:103810009D812817390764F4E881F9810193F983C0
:10382000E88306C0E885F985802F0995892B31F456
:103830008E819F8101969F838E8302C00FEF1FEFC1
:10384000C801DF91CF911F910F910895FA01AA2726
:10385000283051F1203181F1E8946F936E7F6E5FD3
:103860007F4F8F4F9F4FAF4FB1E03ED0B4E03CD081
:10387000670F781F891F9A1FA11D680F791F8A1F64
:10388000911DA11D6A0F711D811D911DA11D20D0CB
:1038900009F468943F912AE0269F11243019305D85
:1038A0003193DEF6CF010895462F4770405D419376
:1038B000B3E00FD0C9F7F6CF462F4F70405D4A33C3
:1038C00018F0495D31FD4052419302D0A9F7EACF8B
:1038D000B4E0A6959795879577956795BA95C9F7BA
:1038E00000976105710508959B01AC010A2E0694AD
:1038F0005795479537952795BA95C9F7620F731F66
:0C390000841F951FA01D0895F894FFCFB0
:10390C00256400000000000000000000010202031A
:10391C000303030404040404040404050505050559
:10392C000505050505050505050505060606060636
:10393C00060606060606060606060606060606061B
:10394C000606060606060606060606070707070706
:10395C0007070707070707070707070707070707EB
:10396C0007070707070707070707070707070707DB
:10397C0007070707070707070707070707070707CB
:10398C0007070707070707070707070808080808B6
:10399C00080808080808080808080808080808089B
:1039AC00080808080808080808080808080808088B
:1039BC00080808080808080808080808080808087B
:1039CC00080808080808080808080808080808086B
:1039DC00080808080808080808080808080808085B
:1039EC00080808080808080808080808080808084B
:1039FC00080808080808080808080808080808083B
:103A0C00080808080808080808080801000401004C
:103A1C000501000601000701010601020001020177
:103A2C000102020102030102040102050102060166
:103A3C000207010100010101010102010104010061
:103A4C000201000301FF00003738392F3435362AC4
:083A5C003132332D23303D2BE4
:00000001FF
