:100000000C942A000C94B80F0C94E10F0C940A1075
:100010000C94D40A0C949F0A0C949E0E0C94931981
:100020000C9447000C9447000C94170C0C94DE0BB6
:100030000C948D0C0C9447000C9447000C944700D2
:100040000C9447000C9447000C9447000C94470014
:100050000C94470011241FBECFE5D8E0DEBFCDBF12
:1000600011E0A0E6B0E0E6E4FBE602C005900D92E8
:10007000A23BB107D9F718E0A2EBB1E001C01D9295
:10008000AB35B107E1F70E94D3170C94A1350C945E
:100090000000EF92FF920F931F937B018C0120E0F1
:1000A00030E040E05FE40E94F50388238CF0C80153
:1000B000B70120E030E040E05FE40E94C1010E940F
:1000C000B3049B01AC01205030404040504806C072
:1000D000C801B7010E94B3049B01AC01B901CA0178
:1000E0001F910F91FF90EF900895A0E0B0E0EBE733
:1000F000F0E00C948831DC012B01FA019C919230E4
:1001000008F439C1EB018881823008F433C194309E
:1001100069F4843009F02FC111969C91119789815F
:10012000981709F428C1A8E6B0E025C1843009F485
:1001300021C18230A9F4923009F01DC19A01AD01AC
:1001400088E0EA010990AE01E90109929E0181501F
:10015000C1F7E201898111969C918923818308C1AD
:10016000923009F407C112962D903C901397EB0141
:100170008A819B811496AD90BD90CD90DC901797AD
:10018000EC80FD800E811F819101281B390BB90184
:1001900037FF04C066277727621B730B6032710537
:1001A0000CF061C0121613066CF537014801062EDB
:1001B00004C096948794779467940A94D2F721E0C8
:1001C00030E040E050E004C0220F331F441F551FB1
:1001D0006A95D2F721503040404050402E213F21B7
:1001E00040235123211531054105510521F021E01E
:1001F00030E040E050E079018A01E628F72808293C
:1002000019293CC0232BD1F1260E371E350146019A
:10021000062E04C096948794779467940A94D2F734
:1002200021E030E040E050E004C0220F331F441FC3
:10023000551F6A95D2F721503040404050402A2146
:100240003B214C215D21211531054105510521F04E
:1002500021E030E040E050E059016A01A628B728CB
:10026000C828D9280BC0821593052CF01C01AA249C
:10027000BB24650103C0EE24FF24870111969C91E5
:10028000D20111968C91981709F445C0992339F041
:10029000A80197012A193B094C095D0906C0A6016E
:1002A00095012E193F09400B510B57FD08C01182D3
:1002B0003382228224833583468357831DC081E0A5
:1002C00081833382228288279927DC01821B930B4A
:1002D000A40BB50B84839583A683B7830DC0220F2F
:1002E000331F441F551F24833583468357838281E0
:1002F000938101979383828324813581468157813D
:10030000DA01C9010197A109B1098F5F9F4FAF4F72
:10031000BF4328F30BC0918333822282EA0CFB1C7B
:100320000C1D1D1DE482F5820683178383E0808304
:10033000248135814681578157FF1AC0C901AA27F8
:1003400097FDA095BA2F81709070A070B0705695EF
:10035000479537952795822B932BA42BB52B848318
:100360009583A683B7838281938101969383828349
:10037000DF0101C0D201CD01CDB7DEB7E2E10C94BF
:10038000A431A0E2B0E0E7ECF1E00C949431698391
:100390007A838B839C832D833E834F835887E9E048
:1003A000EE2EF12CEC0EFD1ECE010196B7010E943F
:1003B000A4068E010F5E1F4FCE010596B8010E9464
:1003C000A4068A8991E089278A8BC701B801AE010A
:1003D000475E5F4F0E9475000E94CF05A096E6E041
:1003E0000C94B031A0E2B0E0E8EFF1E00C9494316D
:1003F00069837A838B839C832D833E834F835887C5
:10040000F9E0EF2EF12CEC0EFD1ECE010196B701A6
:100410000E94A4068E010F5E1F4FCE010596B80103
:100420000E94A406C701B801AE01475E5F4F0E945B
:1004300075000E94CF05A096E6E00C94B031A0E2D2
:10044000B0E0E5E2F2E00C94883169837A838B8333
:100450009C832D833E834F835887CE010196BE0136
:10046000675F7F4F0E94A406CE010596BE016F5EB6
:100470007F4F0E94A4069985923088F08989823046
:10048000C8F0943019F4823051F404C0843029F457
:10049000923081F488E690E0C6C0923049F420E0C2
:1004A0009A858A89981321E02A87CE010996BBC0D4
:1004B000823049F420E09A858A89981321E02A8BBA
:1004C000CE014196B0C02D843E844F8458886D88FB
:1004D0007E888F88988CEE24FF248701AA24BB2471
:1004E000650140E050E060E070E0E0E0F0E0C10174
:1004F00081709070892BE9F0E60CF71C081D191D1E
:100500009A01AB012A0D3B1D4C1D5D1D80E090E062
:10051000A0E0B0E0E614F7040805190520F481E036
:1005200090E0A0E0B0E0BA01A901480F591F6A1F8E
:100530007B1FAA0CBB1CCC1CDD1C97FE08C081E0F5
:1005400090E0A0E0B0E0A82AB92ACA2ADB2A3196B6
:10055000E032F10549F0660C771C881C991C569412
:10056000479437942794C3CFFA85EA892B893C892D
:100570008B859C85280F391F2E5F3F4F17C0CA01FE
:1005800081709070892B61F016950795F794E79428
:1005900080E090E0A0E0B0E8E82AF92A0A2B1B2BC3
:1005A00076956795579547952F5F3F4F77FDE7CF36
:1005B0000CC0440F551F661F771F17FD4160EE0CDE
:1005C000FF1C001F111F21503040403090E05907A0
:1005D00090E0690790E4790760F32B8F3C8FDB0193
:1005E000CA018F779070A070B07080349105A1051A
:1005F000B10561F447FD0AC0E114F10401051105DC
:1006000029F0405C5F4F6F4F7F4F40781A8EFE1786
:1006100011F081E08A8F4D8F5E8F6F8F78A383E01A
:10062000898FCE0149960E94CF05A096E2E10C94F5
:10063000A431A8E1B0E0EFE1F3E00C9490316983DC
:100640007A838B839C832D833E834F835887B9E0C5
:10065000EB2EF12CEC0EFD1ECE010196B7010E948F
:10066000A4068E010F5E1F4FCE010596B8010E94B1
:10067000A4062985223008F47EC03989323010F46E
:10068000B8017CC08A859A8989278A87243011F02D
:10069000223031F4231709F06EC068E670E06EC0B6
:1006A000343039F41D861E861F86188A1C861B86E8
:1006B00004C0323021F484E08987B7015FC02B8504
:1006C0003C858B899C89281B390B3C872B87ED84C3
:1006D000FE840F851889AD88BE88CF88D88CEA142F
:1006E000FB040C051D0540F4EE0CFF1C001F111F40
:1006F000215030403C872B8720E030E040E050E044
:1007000080E090E0A0E0B0E460E070E0EA14FB0478
:100710000C051D0540F0282B392B4A2B5B2BEA18C2
:10072000FB080C091D09B695A79597958795EE0CC2
:10073000FF1C001F111F6F5F7F4F6F31710531F775
:10074000DA01C9018F779070A070B0708034910584
:10075000A105B10561F427FD0AC0E114F10401050A
:10076000110529F0205C3F4F4F4F5F4F20782D87B8
:100770003E874F87588BBE01675F7F4FCB010E943A
:10078000CF056896EAE00C94AC31A8E1B0E0EBEC60
:10079000F3E00C94943169837A838B839C832D835B
:1007A0003E834F83588789E0E82EF12CEC0EFD1E26
:1007B000CE010196B7010E94A4068E010F5E1F4F65
:1007C000CE010596B8010E94A4068985823040F0CA
:1007D0008989823028F0C701B8010E941C0701C036
:1007E00081E06896E6E00C94B031A8E1B0E0EBEF70
:1007F000F3E00C94943169837A838B839C832D83FB
:100800003E834F83588789E0E82EF12CEC0EFD1EC5
:10081000CE010196B7010E94A4068E010F5E1F4F04
:10082000CE010596B8010E94A4068985823040F069
:100830008989823028F0C701B8010E941C0701C0D5
:100840008FEF6896E6E00C94B031A8E1B0E0EBE2FF
:10085000F4E00C94943169837A838B839C832D8399
:100860003E834F83588789E0E82EF12CEC0EFD1E65
:10087000CE010196B7010E94A4068E010F5E1F4FA4
:10088000CE010596B8010E94A4068985823040F009
:100890008989823028F0C701B8010E941C0701C075
:1008A00081E06896E6E00C94B031A8E0B0E0EBE5BA
:1008B000F4E00C9491319B01AC0183E08983DA016F
:1008C000C9018827B7FD83959927AA27BB27B82E8A
:1008D000211531054105510519F482E089833AC09B
:1008E0008823A9F0203080E0380780E0480780E8BE
:1008F000580729F460E070E080E09FEC30C0EE24FF
:10090000FF248701E21AF30A040B150B02C07901D8
:100910008A018EE1C82ED12CDC82CB82ED82FE8250
:100920000F831887C801B7010E9480050197181628
:10093000190684F4082E04C0EE0CFF1C001F111FC2
:100940000A94D2F7ED82FE820F831887C81AD90A5B
:10095000DC82CB82BA82CE0101960E94CF05289616
:10096000E9E00C94AD31ACE0B0E0E9EBF4E00C94DC
:10097000983169837A838B839C83CE010196BE0173
:100980006B5F7F4F0E94A4068D81823061F18230BF
:1009900050F1843021F48E81882351F12EC02F81B3
:1009A000388537FD20C06E812F3131051CF066235C
:1009B000F9F023C08EE190E0821B930B29853A85E4
:1009C0004B855C8504C056954795379527958A9544
:1009D000D2F76623B1F050954095309521953F4F61
:1009E0004F4F5F4F0EC020E030E040E050E009C0C4
:1009F0002FEF3FEF4FEF5FE704C020E030E040E033
:100A000050E8B901CA012C96E2E00C94B431A8E098
:100A1000B0E0EDE0F5E00C9490317B018C016115C4
:100A200071058105910519F482E0898360C083E036
:100A300089838EE1C82ED12CDC82CB82ED82FE82AE
:100A40000F831887C801B7010E948005FC01319708
:100A5000F7FF3BC0222733272E1B3F0B57016801AE
:100A6000022E04C0D694C794B794A7940A94D2F7E0
:100A700040E050E060E070E081E090E0A0E0B0E0B5
:100A800004C0880F991FAA1FBB1F2A95D2F7019790
:100A9000A109B1098E219F21A023B1230097A105AF
:100AA000B10521F041E050E060E070E04A295B29A7
:100AB0006C297D294D835E836F8378878EE190E07A
:100AC0008E1B9F0B9C838B8312C0309781F00E2E60
:100AD00004C0EE0CFF1C001F111F0A94D2F7ED8218
:100AE000FE820F831887CE1ADF0ADC82CB821A823D
:100AF000CE0101960E94CF052896EAE00C94AC3115
:100B0000EF92FF920F931F937B018C0180E0E81618
:100B100080E0F80681E0080780E0180788F48FEF8E
:100B2000E816F1040105110531F028F088E090E0A5
:100B3000A0E0B0E017C080E090E0A0E0B0E012C01C
:100B400080E0E81680E0F80680E0080781E01807FA
:100B500028F088E190E0A0E0B0E004C080E190E0FF
:100B6000A0E0B0E020E230E040E050E0281B390B8C
:100B70004A0B5B0B04C016950795F794E7948A958A
:100B8000D2F7F701E059FF4F8081281B3109410955
:100B90005109C9011F910F91FF90EF900895DF92C5
:100BA000EF92FF920F931F93FC01E480F580068182
:100BB0001781D1808081823048F480E090E0A0E10C
:100BC000B0E0E82AF92A0A2B1B2BA5C0843009F4CF
:100BD0009FC0823021F4EE24FF24870105C0E11478
:100BE000F1040105110519F4E0E0F0E096C062811E
:100BF00073819FEF623879070CF05BC022E83FEF0A
:100C0000261B370B2A3131052CF020E030E040E084
:100C100050E02AC0B801A701022E04C0769567955E
:100C2000579547950A94D2F781E090E0A0E0B0E0B4
:100C300004C0880F991FAA1FBB1F2A95D2F70197DE
:100C4000A109B1098E219F21A023B1230097A105FD
:100C5000B10521F081E090E0A0E0B0E09A01AB01A5
:100C6000282B392B4A2B5B2BDA01C9018F77907027
:100C7000A070B07080349105A105B10539F427FF4B
:100C800009C0205C3F4F4F4F5F4F04C0215C3F4F76
:100C90004F4F5F4FE0E0F0E02030A0E03A07A0E0E7
:100CA0004A07A0E45A0710F0E1E0F0E079018A0178
:100CB00027C06038710564F5FB01E158FF4FD8018A
:100CC000C7018F779070A070B07080349105A10536
:100CD000B10539F4E7FE0DC080E490E0A0E0B0E09B
:100CE00004C08FE390E0A0E0B0E0E80EF91E0A1F18
:100CF0001B1F17FF05C016950795F794E7943196CB
:100D000087E016950795F794E7948A95D1F705C083
:100D1000EE24FF248701EFEFF0E06E2F6795662742
:100D20006795902F9F77D794DD24D7948E2F869543
:100D3000492F462B582F5D29B701CA011F910F91EA
:100D4000FF90EF90DF900895FC01DB01408151811D
:100D50002281622F6F7770E0221F2227221F93814A
:100D6000892F880F822B282F30E0991F9927991FF0
:100D700011969C93119721153105A9F5411551053F
:100D80006105710511F482E037C082E89FEF139688
:100D90009C938E9312979A01AB0167E0220F331F49
:100DA000441F551F6A95D1F783E08C930DC0220F25
:100DB000331F441F551F12968D919C9113970197D5
:100DC00013969C938E931297203080E0380780E032
:100DD000480780E4580758F314962D933D934D939C
:100DE0005C93179708952F3F310579F4411551050C
:100DF0006105710519F484E08C93089564FF03C0C4
:100E000081E08C9312C01C9210C02F573040139673
:100E10003C932E93129783E08C9387E0440F551FE9
:100E2000661F771F8A95D1F7706414964D935D9372
:100E30006D937C93179708951F93DC01FB019C91A0
:100E4000923008F447C08081823008F443C0943067
:100E500051F411961C91843099F58181682F70E0CE
:100E6000611B71093FC0843021F0923031F482302F
:100E7000B9F18181882389F12DC011961C911197B8
:100E80008230F1F081811817D9F412962D913C919E
:100E90001397828193818217930794F0281739075B
:100EA000BCF014968D919D910D90BC91A02D248144
:100EB000358146815781281739074A075B0718F49F
:100EC000112341F00AC082179307A407B50740F425
:100ED000112319F061E070E005C06FEF7FEF02C0F1
:100EE00060E070E0CB011F910895009729F420E0A5
:100EF00030E040E050E00EC0FC0120E030E040E097
:100F000050E02F5F3F4F4F4F5F4F0190F081E02D3A
:100F10003097B9F7622F732F842F952F0895EF9292
:100F2000FF920F931F93CF93DF938C017B01FC0102
:100F3000C081D18184E090E00E94BF31DC01109734
:100F4000D1F01396FC92EE92129711961C921E927B
:100F5000F80180819181892B19F4B183A0830BC0A2
:100F60008C2F9D2F0990D881C02D2097C9F7E82F8D
:100F7000F92FB183A083DF91CF911F910F91FF9043
:100F8000EF9008958F929F92AF92BF92CF92DF928F
:100F9000EF92FF920F931F93DF93CF9300D000D077
:100FA000CDB7DEB79A8389837A018B013C832B838B
:100FB0000E9475074B015C01C980DA8084E090E0F3
:100FC0000E94BF318E149F04A006B106A0F18E14BA
:100FD0009F04A006B10641F4CE010196BE016D5FEB
:100FE0007F4F0E948F0727C0282F392F21153105E9
:100FF00011F18B819C81F90193838283E114F104C7
:101000000105110579F081E090E0A0E0B0E00196E3
:10101000A11DB11DF601C080D180E816F9060A07AE
:101020001B07A8F7F60180819181F90191838083E4
:10103000F601318320830F900F900F900F90CF9186
:10104000DF911F910F91FF90EF90DF90CF90BF90B5
:10105000AF909F908F9008950F931F93CF93DF933E
:10106000EC018B0184E090E00E94BF31FC013097DD
:1010700041F0138302838881998191838083F9836E
:10108000E883DF91CF911F910F9108958F929F92E6
:10109000AF92BF92CF92DF92EF92FF920F931F9386
:1010A000CF93DF93982E892E5A016B010E9475070A
:1010B0007B018C0184E090E00E94BF31EA14FB04C4
:1010C0000C051D0550F1D601C5010197A109B10913
:1010D0000297A105B10520F4292D382DE90112C090
:1010E000292D382DE90182E090E0A0E0B0E00990E0
:1010F000D881C02D0196A11DB11D8A159B05AC0597
:10110000BD05A9F7E881F981808191819983888360
:1011100011821082CF010E946C32DF91CF911F911A
:101120000F91FF90EF90DF90CF90BF90AF909F9086
:101130008F900895FC01A081B1818D919C911197B0
:101140009183808311961C921E92CD010E946C3275
:1011500008958430D1F1853040F48230F1F083304D
:1011600040F5813009F06CC00CC0863009F445C0F0
:101170008630B8F1873009F44CC0883009F060C07F
:1011800054C0E1E4F0E080818E7F808380818D7F98
:10119000808380818B7F808353C0E1E4F0E0808195
:1011A0008160808380818D7F808380818B7F80833D
:1011B00047C0E1E4F0E080818E7F8083808182609F
:1011C000808380818B7F80833BC0E1E4F0E080817D
:1011D0008160808380818260808380818B7F808337
:1011E0002FC0E1E4F0E080818E7F808380818D7F5D
:1011F000808380818460808323C0E1E4F0E080818B
:101200008160808380818D7F808380818460808302
:1012100017C0E1E4F0E080818E7F8083808182606E
:1012200080838081846080830BC0E1E4F0E0808172
:1012300081608083808182608083808184608083FC
:10124000E1E4F0E08081886080830895E1E4F0E0EB
:1012500088E180831082089587E689B9EBE2F0E0A7
:1012600080818D7F8083EAE2F0E0808180618083ED
:101270008081886080830895982FEBE2F0E0808180
:1012800085FFFDCF9CB90895EBE2F0E080818823D3
:10129000ECF78CB10895CF93DF93FC018081882314
:1012A00039F0EF010E943C09898121968823D1F70A
:1012B000DF91CF910895EF92FF920F931F93DF93E9
:1012C000CF93CDB7DEB764970FB6F894DEBF0FBEED
:1012D000CDBF60E070E0ABE2B0E02CE230E08E0128
:1012E0000F5F1F4F0F2EF3E1EF2EFF24F02D8C9197
:1012F0008823ECF7F90180818D3079F08A3069F02C
:10130000AB014F5F5F4F4431510508F0A701F80171
:10131000E60FF71F8083BA01EACFCE010196FC01E8
:10132000E60FF71F10820E94C43264960FB6F8943D
:10133000DEBF0FBECDBFCF91DF911F910F91FF9008
:10134000EF900895181614F4880F82B98CE080B9D4
:10135000E1E2F0E080818E7F808380818D7F8083D9
:10136000E6E5F0E080818064808380818460808312
:101370000895E6E5F0E08081806280838081806866
:10138000808380818823ECF7E1E2F0E08081887F30
:101390008830E1F70895E6E5F0E0808180618083A0
:1013A0008081806880830895E6E5F0E08081806236
:1013B000808380818068808380818823ECF7E1E2EC
:1013C000F0E08081887F8031E1F708951816C4F439
:1013D000880FE3E2F0E0808380818E7F8083E6E502
:1013E000F0E080818F7D8083808180688083808130
:1013F0008823ECF7E1E2F0E08081887F8831E1F733
:1014000008951816C4F4880FE3E2F0E08083808129
:1014100081608083E6E5F0E080818F7D808380813C
:101420008068808380818823ECF7E1E2F0E08081AE
:10143000887F8034E1F7089583B9E6E5F0E08081A4
:101440008068808380818823ECF7E1E2F0E080818E
:10145000887F8832E1F70895DC01E6E5F0E08081DD
:101460008F7B8083109771F080818068808380817A
:101470008823ECF7E1E2F0E08081887F8835E1F7AE
:1014800083B18C93E6E5F0E08081806480830895E9
:10149000DC01009781F0E6E5F0E0808180688083E0
:1014A00080818823ECF7E1E2F0E08081887F80355D
:1014B000E1F783B18C930895E5E4F0E080818E7FBD
:1014C000808380818D7F808380818B7F808308955E
:1014D00084BD0895A0E0B0E0BC01CD0128EE33E06A
:1014E00040E050E00E9433310E9466313093B301F6
:1014F0002093B20108950895009721F09093B501CB
:101500008093B4010895E5E4F0E0808188608083F1
:1015100080818F7B8083E9E5F0E080818068808333
:1015200089EF83BD0895E5E4F0E080818E7F8083BC
:1015300080818D7F808380818460808308951F9265
:101540000F920FB60F9211242F933F934F935F93F7
:101550006F937F938F939F93AF93BF93EF93FF937B
:101560008091B8019091B90101969093B90180934F
:10157000B801815D934039F481E70E94680A1092B6
:10158000B9011092B801FF91EF91BF91AF919F9176
:101590008F917F916F915F914F913F912F910F901C
:1015A0000FBE0F901F9018951F920F920FB60F92BB
:1015B00011242F933F934F935F936F937F938F9358
:1015C0009F93AF93BF93EF93FF938091B601909158
:1015D000B70101969093B7018093B6012091B201B3
:1015E0003091B3018217930759F41092B70110920A
:1015F000B601E091B401F091B501309709F0099579
:10160000FF91EF91BF91AF919F918F917F916F91DA
:101610005F914F913F912F910F900FBE0F901F90B0
:101620001895EEE4F0E080818E7F808380818D7F4D
:10163000808380818B7F808308959BBD8ABD0895C0
:101640009C0140E050E060E970ED83E090E00E9492
:1016500066312150304037BD26BD0895AFE4B0E07B
:101660008C918E7F8C938C9182608C93EEE4F0E071
:101670008081886080838081806180838C918F7B72
:101680008C938C9180688C9382E390E00E94200B75
:101690000895EF92FF920F931F937B018C0120E03E
:1016A00030E048EC52E40E94250418164CF1C801C1
:1016B000B70120E030E040E050E00E94C5038823FD
:1016C00019F41BBC1ABC1CC066B577B56F5F7F4FA1
:1016D00080E090E00E940705A80197010E941F0288
:1016E00020E030E048EC52E40E94190320E030E0B2
:1016F00040E85FE30E94C1010E9449007BBD6ABDD2
:101700001F910F91FF90EF900895EEE4F0E080813B
:101710008160808380818260808380818B7F8083F1
:101720000895E3E5F0E080818E7F808380818D7F66
:10173000808380818B7F8083089582BF0895A0E09D
:10174000B0E0BC01CD0128EE33E040E050E00E9463
:101750003331672F782F892F99277093BB016093BE
:10176000BA0108950895009721F09093C1018093E4
:10177000C0010895009721F09093BD018093BC01B2
:101780000895E3E5F0E08081877F808380818F7B0F
:101790008083E9E5F0E080818160808380E00E94C1
:1017A0009D0B0895E3E5F0E0808181608083808176
:1017B0008260808380818B7F808308951F920F9247
:1017C0000FB60F9211242F933F934F935F936F9314
:1017D0007F938F939F93AF93BF93EF93FF938091EA
:1017E000C2019091C30101969093C3018093C201FD
:1017F000069761F412BE1092C3011092C201E091EB
:10180000C001F091C101309709F00995FF91EF9166
:10181000BF91AF919F918F917F916F915F914F9108
:101820003F912F910F900FBE0F901F9018951F9210
:101830000F920FB60F9211242F933F934F935F9304
:101840006F937F938F939F93AF93BF93EF93FF9388
:101850008091BE019091BF0101969093BF0180934A
:10186000BE012091BA013091BB018217930759F450
:101870001092BF011092BE01E091BC01F091BD0138
:10188000309709F00995FF91EF91BF91AF919F912A
:101890008F917F916F915F914F913F912F910F9019
:1018A0000FBE0F901F901895EDE2F0E080818F7EC3
:1018B0008083808180628083808188608083808152
:1018C000846080838081806480830895982FDB0109
:1018D0006115710569F0EEE2F0E0808186FDFDCFD3
:1018E0009FB9EEE2F0E080818823ECF78FB18C9312
:1018F0000895982F6115710579F0EDE2F0E080818F
:10190000806880837093C5016093C401EEE2F0E0CB
:10191000808186FDFDCF9FB908951F920F920FB66B
:101920000F9211242F933F934F935F936F937F9365
:101930008F939F93AF93BF93EF93FF93E091C40175
:10194000F091C501309711F08FB10995FF91EF919A
:10195000BF91AF919F918F917F916F915F914F91C7
:101960003F912F910F900FBE0F901F9018954F929F
:101970005F926F927F928F929F92AF92BF92CF921F
:10198000DF92EF92FF920F931F93CF93DF93FC01AF
:1019900040E050E00F2EF7E3EF2EFF24F02D61E042
:1019A00070E00F2EF8E38F2E9924F02D0AE310E05B
:1019B0000F2EFBE36F2E7724F02DC4E3D0E00F2E23
:1019C000F5E3AF2EBB24F02D0F2EF1E34F2E55245F
:1019D000F02D0F2EF2E3CF2EDD24F02D808181300B
:1019E00051F1813038F0823009F446C0833009F07B
:1019F00082C061C08281813061F4D8012C91CB0119
:101A0000018002C0880F991F0A94E2F7282B2C93BB
:101A100072C0D8013C91CB01018002C0880F991F90
:101A20000A94E2F7282F209523232C93D3012C919D
:101A3000822B8C9360C08281813061F4D7012C911C
:101A4000CB01018002C0880F991F0A94E2F7282B6E
:101A50002C9351C0D7013C91CB01018002C0880F6B
:101A6000991F0A94E2F7282F209523232C93D40161
:101A70002C91822B8C933FC08281813059F4288134
:101A8000CB01018002C0880F991F0A94E2F7282B2E
:101A9000288331C03881CB01018002C0880F991F93
:101AA0000A94E2F7282F209523232883D5012C912F
:101AB000822B8C9320C08281813061F4D2012C91E1
:101AC000CB01018002C0880F991F0A94E2F7282BEE
:101AD0002C9311C0D2013C91CB01018002C0880F30
:101AE000991F0A94E2F7282F209523232C93D601DF
:101AF0002C91822B8C934F5F5F4F33964032510570
:101B000009F06CCFDF91CF911F910F91FF90EF9073
:101B1000DF90CF90BF90AF909F908F907F906F900D
:101B20005F904F900895482F8695869586958130D1
:101B300031F1813038F0823009F442C0833009F04D
:101B400080C05FC0613069F4EAE3F0E0208181E0A9
:101B500090E002C0880F991F4A95E2F7282B208356
:101B60000895EAE3F0E0208181E090E002C0880F70
:101B7000991F4A95E2F7809582238083089561300A
:101B800079F4E7E3F0E02081342F377081E090E0D2
:101B900002C0880F991F3A95E2F7282B20830895F9
:101BA000E7E3F0E03081242F277081E090E002C06D
:101BB000880F991F2A95E2F78095832380830895E3
:101BC000613079F4E4E3F0E02081342F377081E074
:101BD00090E002C0880F991F3A95E2F7282B2083E6
:101BE0000895E4E3F0E03081242F277081E090E055
:101BF00002C0880F991F2A95E2F78095832380837E
:101C00000895613079F4E1E3F0E02081342F3770FA
:101C100081E090E002C0880F991F3A95E2F7282BE7
:101C200020830895E1E3F0E03081242F277081E0E4
:101C300090E002C0880F991F2A95E2F780958323D0
:101C400080830895EFE4F0E080818E7F808380813F
:101C50008D7F8083EEE4F0E08081877F80838081C8
:101C60008F7E8083808180648083A9E5B0E08C9141
:101C700080628C9380818160808380818260808398
:101C800080818B7F80830895CF92DF92EF92FF92C5
:101C90000F931F93CF93DF93EC010097E9F06091CE
:101CA000CA017091CB01C090CA01D090CB01E090E5
:101CB000CC01F090CD0180E090E024E630E040E0FF
:101CC00050E00E943331EC0CFD1C00E010E0A80154
:101CD00097010E9466312883DF91CF911F910F9168
:101CE000FF90EF90DF90CF900895CF93DF93EC01BA
:101CF0000097B1F08091CA019091CB012091CC0165
:101D00003091CD01280F391F40E050E060E472E4CB
:101D10008FE090E00E946631288339834A835B8399
:101D2000DF91CF9108952091CA013091CB0140E01D
:101D300050E0622F732F842F952F08951F920F92DA
:101D40000FB60F9211242F933F934F935F938F936E
:101D50009F93EF93FF9326B537B53093C701209338
:101D6000C601809176018130C9F48091C8019091BB
:101D7000C901A901481B590BCA01880F991F880F77
:101D8000991F9093CD018093CC01EEE4F0E0808127
:101D90008F7B808382E0809376011AC08230C1F409
:101DA0008091C8019091C901A901481B590BCA0132
:101DB000880F991F880F991F9093CB018093CA01B8
:101DC000EEE4F0E080818064808381E0809376019E
:101DD00086B597B59093C9018093C801FF91EF91A3
:101DE0009F918F915F914F913F912F910F900FBED7
:101DF0000F901F901895EFE5F0E080818068808358
:101E00000895EFE5F0E080818F7780830895813039
:101E100081F1813020F0823009F062C054C062301C
:101E2000F9F06330A1F0613049F0E5E5F0E0808140
:101E3000816080838081826080830895E5E5F0E0A1
:101E400080818E7F80838081826080830895E5E534
:101E5000F0E080818160808380818D7F8083089520
:101E6000E5E5F0E080818E7F808380818D7F8083B7
:101E700008956230F9F06330A1F0613049F0E5E592
:101E8000F0E0808184608083808188608083089511
:101E9000E5E5F0E080818B7F8083808188608083AE
:101EA0000895E5E5F0E08081846080838081877F0C
:101EB00080830895E5E5F0E080818B7F80838081D9
:101EC000877F80830895613031F0E4E5F0E0808120
:101ED000806480830895E4E5F0E080818F7B8083D7
:101EE0000895813059F0813018F0823091F40CC09F
:101EF000EBE5F0E08081806480830895EBE5F0E01D
:101F00008081806880830895EBE5F0E080818062C5
:101F100080830895813059F0813018F0823091F437
:101F20000CC0EBE5F0E080818F7B80830895EBE5CA
:101F3000F0E080818F7780830895EBE5F0E0808189
:101F40008F7D80830895009721F09093D301809333
:101F5000D2010895009721F09093D1018093D00190
:101F60000895009721F09093CF018093CE010895BA
:101F70001F920F920FB60F9211242F933F934F93FE
:101F80005F936F937F938F939F93AF93BF93EF93E1
:101F9000FF93E091D201F091D301309709F00995B8
:101FA000FF91EF91BF91AF919F918F917F916F9131
:101FB0005F914F913F912F910F900FBE0F901F9007
:101FC00018951F920F920FB60F9211242F933F93E3
:101FD0004F935F936F937F938F939F93AF93BF9331
:101FE000EF93FF93E091D001F091D101309709F088
:101FF0000995FF91EF91BF91AF919F918F917F9143
:102000006F915F914F913F912F910F900FBE0F9065
:102010001F9018951F920F920FB60F9211242F93B5
:102020003F934F935F936F937F938F939F93AF9360
:10203000BF93EF93FF93E091CE01F091CF013097E2
:1020400009F00995FF91EF91BF91AF919F918F9109
:102050007F916F915F914F913F912F910F900FBEA4
:102060000F901F901895482F8695869586958130FC
:1020700031F1813038F0823009F442C0833009F008
:1020800080C05FC0613069F4EBE3F0E0208181E063
:1020900090E002C0880F991F4A95E2F7282B208311
:1020A0000895EBE3F0E0208181E090E002C0880F2A
:1020B000991F4A95E2F780958223808308956130C5
:1020C00079F4E8E3F0E02081342F377081E090E08C
:1020D00002C0880F991F3A95E2F7282B20830895B4
:1020E000E8E3F0E03081242F277081E090E002C027
:1020F000880F991F2A95E2F780958323808308959E
:10210000613079F4E5E3F0E02081342F377081E02D
:1021100090E002C0880F991F3A95E2F7282B2083A0
:102120000895E5E3F0E03081242F277081E090E00E
:1021300002C0880F991F2A95E2F780958323808338
:102140000895613079F4E2E3F0E02081342F3770B4
:1021500081E090E002C0880F991F3A95E2F7282BA2
:1021600020830895E2E3F0E03081242F277081E09E
:1021700090E002C0880F991F2A95E2F7809583238B
:1021800080830895282F869586958695813089F0DD
:10219000813030F08230B9F08330F9F080E008957A
:1021A00089B390E002C0959587952A95E2F78170F2
:1021B000089586B390E0277002C0959587952A957B
:1021C000E2F78170089583B390E0277002C095957F
:1021D00087952A95E2F78170089580B390E0277083
:1021E00002C0959587952A95E2F781700895382F5A
:1021F0008695869586958130F9F0813038F0823069
:10220000A9F1833009F44CC080E00895EBE3F0E0DD
:10221000208181E090E0032E02C0880F991F0A946C
:10222000E2F728272083808190E002C0959587956A
:102230003A95E2F781700895E8E3F0E04081232FBA
:1022400030E02770307081E090E0022E02C0880FED
:10225000991F0A94E2F748274083808190E002C0EA
:10226000959587952A95E2F781700895E5E3F0E06A
:102270004081232F30E02770307081E090E0022E03
:1022800002C0880F991F0A94E2F748274083808193
:1022900090E002C0959587952A95E2F781700895A0
:1022A000E2E3F0E04081232F30E02770307081E0DE
:1022B00090E0022E02C0880F991F0A94E2F7482787
:1022C0004083808190E002C0959587952A95E2F73A
:1022D00081700895813051F0813030F0823041F0CA
:1022E000833041F080E0089589B3089586B308955E
:1022F00083B3089580B30895813049F0813028F088
:10230000823039F0833041F406C06BBB089568BB5E
:10231000089565BB089562BB0895E7E2F0E080810F
:102320008064808380818F778083808180628083D6
:10233000E6E2F0E08081816080838081826080833A
:102340008081846080838081806880830895833069
:1023500009F44AC0843028F4813011F1823090F5BC
:102360000DC0853009F464C0853008F44FC0863054
:1023700009F470C0873009F090C07EC0E7E2F0E059
:1023800080818E7F808380818D7F808380818B7F21
:1023900080838081877F808380818F7E80837DC0E2
:1023A000E7E2F0E080818160808380818D7F80839F
:1023B00080818B7F80838081877F808380818F7EF7
:1023C00080836BC0E7E2F0E080818E7F8083808134
:1023D0008260808380818B7F80838081877F808300
:1023E00080818F7E808359C0E7E2F0E08081816048
:1023F000808380818260808380818B7F80838081E5
:10240000877F808380818F7E808347C0E7E2F0E012
:1024100080818E7F808380818D7F808380818460B6
:1024200080838081877F808380818F7E808335C099
:10243000E7E2F0E080818160808380818D7F80830E
:102440008081846080838081877F808380818F7E8C
:10245000808323C0E7E2F0E080818E7F80838081EB
:10246000826080838081846080838081877F808395
:1024700080818F7E808311C0E7E2F0E080818160FF
:10248000808380818260808380818460808380817A
:10249000877F808380818F7E8083E6E2F0E0808189
:1024A00080648083808186FDFDCF84B1829586958E
:1024B0008695837090E025B130E0220F331F220F04
:1024C000331F282B392B822F932F08950E94930EB0
:1024D0002AE330E040E050E00E946631822F932FE3
:1024E00008951F93182F61E00E94331085E38A95A9
:1024F000F1F7812F60E00E94331028E532E040E9D7
:1025000051E0CA010197F1F721503040D1F71F91F6
:102510000895CF92DF92EF92FF921F93CF93DF93B4
:1025200010E00F2EFBE2CF2EF8E0DF2EF02D0F2E65
:10253000FFE1EF2EF8E0FF2EF02DC12FD0E0CE010D
:10254000880F991F880F991F880F991F8C1B9D0B4F
:10255000F601E80FF91F408151814115510571F1D4
:10256000CE01880F991FF701E80FF91F20813181F3
:1025700021153105C9F4FA010995CE01880F991F7B
:10258000D701A80FB91FCE01880F991F880F991F77
:10259000880F991F8C1B9D0BF601E80FF91F828194
:1025A00093818D939C930AC0CE01880F991FF701E8
:1025B000E80FF91FC9010197918380831F5F809104
:1025C000D401811708F0B9CFDF91CF911F91FF900F
:1025D000EF90DF90CF900895CF92DF92EF92FF922D
:1025E0001F93CF93DF93182F6B017A01E90160915C
:1025F000D401462F50E0141615060CF042C080910D
:102600003108811779F0E8E3F8E020E030E004C019
:1026100080813796811731F02F5F3F4F24173507A0
:10262000BCF32FC0212F30E0CA01019728173907CA
:102630003CF5C901880F991F880F991F880F991FB2
:10264000821B930BFC01EF5CF74FAC01409550955A
:10265000862F90E0280F391FC901880F991F880F16
:10266000991F880F991F821B930B855D974F480F09
:10267000591F80818F5F80833796E417F507C9F76C
:102680001F5F812F90E0DC01AA0FBB1FAA0FBB1FA9
:10269000AA0FBB1FA81BB90BA55DB74FFD01E192A7
:1026A000F192D182C08216961C9316971596DC93F0
:1026B000CE931497880F991F815E974FFC01D183A9
:1026C000C083862F8F5F8093D401DF91CF911F91BC
:1026D000FF90EF90DF90CF9008950E94C10B0E9471
:1026E000D20B89E892E10E94B30B08950E94110B6E
:1026F00008951F93182F8091D501882329F40E94F3
:102700002E0B81E08093D501612F70E0882777FD43
:102710008095982F0E94550429E33EE843EE5CE340
:102720000E941F0220E030E040EA50E40E94F201E3
:102730000E94490B0E94850B1F910895EF92FF9212
:102740001F93182F83E060E00E943310612F629581
:102750006F70617088E00E943310612F62956695FA
:102760006770617089E00E943310612F62956695F1
:102770006695637061708AE00E943310612F661F56
:102780006627661F8BE00E94331082E061E00E94A2
:1027900033100F2EF0EAEF2EFFE0FF2EF02DC701D1
:1027A0000197F1F782E060E00E943310C7010197C2
:1027B000F1F7612F617088E00E943310612F6695F8
:1027C000617089E00E943310612F66956695617093
:1027D0008AE00E94331016951695169511708BE0BD
:1027E000612F0E94331082E061E00E943310C70124
:1027F0000197F1F782E060E00E943310C701019772
:10280000F1F71F91FF90EF9008956150823089F0A9
:10281000833018F4813021F505C0833091F0843085
:10282000F9F417C0862F80580E949E131092D6018B
:102830000895862F80540E949E1384E18093D601D0
:102840000895862F8C560E949E1388E28093D601AD
:102850000895862F8C520E949E138CE38093D6019C
:10286000089581E00E949E131092D60108950F935F
:102870001F9324EF31E040E951E0CA010197F1F7DD
:1028800021503040D1F782E00E949E1388E20E94DE
:102890009E1300EA1FE0C8010197F1F78FE00E9444
:1028A0009E13C8010197F1F781E00E949E1380E416
:1028B0009FE10197F1F786E00E949E13C8010197FE
:1028C000F1F78CE00E949E1380E80E949E131F91F6
:1028D0000F910895EF92FF921F93182F83E061E00C
:1028E0000E943310612F62956F70617088E00E94C2
:1028F0003310612F629566956770617089E00E9460
:102900003310612F629566956695637061708AE0F9
:102910000E943310612F661F6627661F8BE00E949E
:10292000331082E061E00E9433100F2EF0EAEF2EA8
:10293000FFE0FF2EF02DC7010197F1F782E060E084
:102940000E943310C7010197F1F7612F617088E091
:102950000E943310612F6695617089E00E943310E8
:10296000612F6695669561708AE00E943310169516
:102970001695169511708BE0612F0E94331082E03E
:1029800061E00E943310C7010197F1F782E060E037
:102990000E943310C7010197F1F71F91FF90EF904C
:1029A00008951F93182F862F642F0E940514812FDE
:1029B0000E946A141F910895DF92EF92FF920F9385
:1029C0001F93CF93DF93E82ED62E8A01F22E822F0B
:1029D000880F880F880F805C0E949E13C0E0D0E0B3
:1029E000F801EC0FFD1F80810E946A142196C83007
:1029F000D105B1F78F2D6E2D4D2D0E94D114DF9191
:102A0000CF911F910F91FF90EF90DF9008951F934A
:102A1000182F8091D601843129F482E061E00E9470
:102A2000051416C0883229F483E061E00E94051481
:102A30000FC08C3329F484E061E00E94051408C0C3
:102A4000803531F481E061E00E9405141092D601D6
:102A5000812F0E946A148091D6018F5F8093D601E6
:102A60001F910895CF92DF92EF92FF920F931F93E1
:102A7000CF93DF93FC0120812223E9F07C010F2E0C
:102A8000F4EFCF2EF1E0DF2EF02DC0E9D1E0CE0142
:102A90000C2F192F822F0E9407159601CE01019746
:102AA000F1F721503040D1F7F70121810894E11C62
:102AB000F11C222379F7DF91CF911F910F91FF90A5
:102AC000EF90DF90CF900895CF93DF93EC01888152
:102AD000882331F00E940715219688818823D1F739
:102AE000DF91CF9108950F931F938C01862F642F50
:102AF0000E940514C8010E9464151F910F9108954A
:102B00000F931F93DF93CF93CDB7DEB727970FB601
:102B1000F894DEBF0FBECDBF2DB73EB72850304072
:102B20000FB6F8943EBF0FBE2DBFEDB7FEB731967E
:102B30009E012F5F3F4F3183208327E030E03383B6
:102B4000228320E630E035832483978386830E94A6
:102B5000F3328981EDB7FEB738960FB6F894FEBF11
:102B60000FBEEDBF882351F08E010E5F1F4F0E94F4
:102B70000715F80181918F018823C9F727960FB6B1
:102B8000F894DEBF0FBECDBFCF91DF911F910F91A3
:102B9000089580E161E00E94331081E161E00E94CC
:102BA000331082E161E00E94331083E161E00E9412
:102BB000331008954F925F927F928F929F92AF92BF
:102BC000BF92CF92DF92EF92FF920F931F93DF930A
:102BD000CF9300D000D0CDB7DEB72C0180E1898340
:102BE00081E18A8382E18B8383E18C8300E010E0C2
:102BF0005E010894A11CB11C0F2EF4E19F2EF02D54
:102C00000F2EF5E18F2EF02D0F2EF6E17F2EF02DF9
:102C10006801F501E00FF11FE0808E2D60E00E9459
:102C20003310F92C892D0E94C210882319F480E0FA
:102C300090E01DC0F82C882D0E94C210882319F442
:102C400081E090E014C0F72C872D0E94C2108823E9
:102C500019F482E090E00BC087E10E94C210882343
:102C6000C1F483E090E00F2EF7E1FF2EF02DF60186
:102C7000EE0FFF1FEE0FFF1FE80FF91FEE55FE4F7F
:102C80008081F20180838F2D0E94C2108823D9F3A6
:102C90000DC08E2D61E00E9433100F5F1F4F043076
:102CA000110509F0B5CF84E5F20180830F900F90F4
:102CB0000F900F90CF91DF911F910F91FF90EF90A8
:102CC000DF90CF90BF90AF909F908F907F905F905C
:102CD0004F900895AF92BF92CF92DF92EF92FF9202
:102CE0000F931F93CF93DF93182F6B01F42E092FAF
:102CF00000650E94B909802F0E94E609812F0E9479
:102D00001C0A0E94D409802F0E94010ACF2DD0E016
:102D10001C161D06E4F400E010E07E010894E108B2
:102D2000F1080F2EF6E5AF2EBB24F02DC601800F63
:102D3000911F0E94480AE016F10621F4F5018081F6
:102D40008F7B80830F5F1F4F0C171D077CF30E9442
:102D5000CB0980E29EE40197F1F7DF91CF911F91BB
:102D60000F91FF90EF90DF90CF90BF90AF900895BC
:102D7000CF92DF92FF920F931F93CF93DF93182F81
:102D8000092F6B01F42E0E94B909802F80650E94E3
:102D9000E609812F0E941C0ACF2DD0E01C161D06CB
:102DA0006CF400E010E0F601E00FF11F80810E945A
:102DB0001C0A0F5F1F4F0C171D07ACF30E94CB09B5
:102DC00080E29EE40197F1F7DF91CF911F910F917F
:102DD000FF90DF90CF900895FF920F931F93182FCD
:102DE000092FF62E0E94B909802F80650E94E609FE
:102DF000812F0E941C0A8F2D0E941C0A0E94CB0961
:102E000080E29EE40197F1F71F910F91FF900895E2
:102E10000F931F93CF93DF93082FEB01611571057B
:102E2000C1F0192F10650E94B909812F0E94E6098F
:102E3000802F0E941C0A0E94D409812F0E94010A3F
:102E4000CE010E942C0A0E94CB0980E29EE40197E9
:102E5000F1F7DF91CF911F910F9108958FEF0E94AD
:102E6000A20908950E94910B1092D7018EE060E0B4
:102E70000E94331008951F93182F8091D701882343
:102E800029F40E94C10B81E08093D701812F0E9419
:102E9000B20B0E94D20B1F9108951F93182F8EE042
:102EA00061E00E94331084E60E943B17113019F054
:102EB000123051F405C08DE061E00E94331004C06F
:102EC0008DE060E00E9433101F9108951F93182F2A
:102ED0006130C9F0613030F0623031F1633009F0B7
:102EE00044C033C0EBE3F0E08081877F8083808142
:102EF00084608083E8E3F0E0808180628083808169
:102F00008064808332C0EBE3F0E08081886080835E
:102F100080818B7F8083E8E3F0E080818062808322
:102F200080818064808321C0EBE3F0E08081886051
:102F30008083808184608083E8E3F0E080818F7DFE
:102F4000808380818064808310C0EBE3F0E0808127
:102F500088608083808184608083E8E3F0E0808102
:102F60008062808380818F7B80831A30D0F4612FD0
:102F7000617088E00E943310612F6695617089E06E
:102F80000E943310612F6695669561708AE00E94F9
:102F90003310612F66956695669561708CE00E948E
:102FA00033101F9108954F925F926F927F928F928C
:102FB0009F92AF92BF92CF92DF92EF92FF920F93C8
:102FC0001F93CF93DF9387E791E00E94B70C0E9495
:102FD000FB0E0E9437140E94220E0E94540C10E037
:102FE0000F2EFBED8F2EF1E09F2EF02DC9EDD1E0DD
:102FF0000F2EFDED6F2EF1E07F2EF02D0F2EFFED49
:103000004F2EF1E05F2EF02DAA24BB246894A1F886
:10301000AC0EBD1ECC24DD246894C2F8CC0EDD1E9F
:103020000F2EF6E0EF2EFF24F02DEC0EFD1E00E03B
:103030002CC0113079F0113028F01230A1F013308B
:1030400019F51AC080E10E9471120E9466129983DC
:1030500088831AC081E10E9471120E946612F401F5
:103060009183808311C082E10E9471120E946612D6
:10307000F3019183808308C083E10E9471120E9452
:103080006612F201918380831F5F143090F20E94D8
:10309000311481E061E00E940514888199810E94C9
:1030A000801582E061E00E940514F5018081918124
:1030B0000E94801583E061E00E940514F601808182
:1030C00091810E94801584E061E00E940514F7015F
:1030D000808191810E948015102FD7CF0895109282
:1030E000E2011092E10108958091E1019091E201E5
:1030F0002BED35E0281B390B822F932F0895CF93AA
:10310000DF93EC010E9481258091E3019091E4011D
:10311000892B31F485EE91E09093E4018093E301F3
:103120002097D1F04091E1015091E2019E01240FDE
:10313000351F85E02B3D380778F44217530760F4BC
:103140008091E3019091E401EC01C40FD51F30930D
:10315000E2012093E10102C0C0E0D0E00E942A2CED
:103160008C2F9D2FDF91CF910895FC0191E19083E9
:1031700022E2229383E3829362937293129280E815
:103180008293129282E0829383E0829384E082931E
:1031900085E0829386E0829387E0829388E0829341
:1031A00089E0829380E18293929382E1829383E12A
:1031B000829384E1829385E1829386E1829387E121
:1031C000829388E1829389E1829380E2829381E213
:1031D0008293229383E282934293529386E2829374
:1031E00087E2829388E2829389E2829380E38293EA
:1031F00081E3829331978E2F9F2F089508951BBCF2
:1032000089EF8ABD8BE08EBDE9E5F0E080818061C9
:103210008083A091C107B091C207CD91CDBFDD9150
:10322000DEBFFF91EF91DF91CF91BF91AF919F9161
:103230008F917F916F915F914F913F912F911F914E
:103240000F91FF90EF90DF90CF90BF90AF909F9045
:103250008F907F906F905F904F903F902F901F9036
:103260000F900FBE0F90089581E008950F920FB652
:10327000F8940F921F9211242F923F924F925F92D7
:103280006F927F928F929F92AF92BF92CF92DF9276
:10329000EF92FF920F931F932F933F934F935F9360
:1032A0006F937F938F939F93AF93BF93CF93DF934E
:1032B000EF93FF93A091C107B091C2070DB60D9295
:1032C0000EB60D920E94B027882311F00E94A92506
:1032D000A091C107B091C207CD91CDBFDD91DEBFF6
:1032E000FF91EF91DF91CF91BF91AF919F918F911E
:1032F0007F916F915F914F913F912F911F910F910E
:10330000FF90EF90DF90CF90BF90AF909F908F9005
:103310007F906F905F904F903F902F901F900F90F5
:103320000FBE0F9008950E94361918950F920FB690
:10333000F8940F921F9211242F923F924F925F9216
:103340006F927F928F929F92AF92BF92CF92DF92B5
:10335000EF92FF920F931F932F933F934F935F939F
:103360006F937F938F939F93AF93BF93CF93DF938D
:10337000EF93FF93A091C107B091C2070DB60D92D4
:103380000EB60D920E94A925A091C107B091C20767
:10339000CD91CDBFDD91DEBFFF91EF91DF91CF9158
:1033A000BF91AF919F918F917F916F915F914F915D
:1033B0003F912F911F910F91FF90EF90DF90CF9051
:1033C000BF90AF909F908F907F906F905F904F9045
:1033D0003F902F901F900F900FBE0F900895FC010B
:1033E0000FB6F8940F922081318160957095622319
:1033F0007323718360830F900FBE822F932F0895E4
:10340000FC01808191810895BA010E94EF1908950D
:10341000442339F420E086239723892B49F021E0C7
:1034200007C020E0862397238617970709F421E039
:10343000822F0895CF92DF92EF92FF920F931F9306
:10344000CF93DF93EC018B010F2EF5E0CF2EDD241F
:10345000F02DC80ED91E0E948125EF81F885888144
:103460009981802B912B99838883CE16DF0649F1B1
:10347000EE24FF240281138180819181AC01407090
:103480009C01307092FD07C088819981822393232B
:10349000892B41F411C0888199818223932382175B
:1034A000930751F450FF02C0E22AF32A6881798120
:1034B0007260CF010E94A626C016D10621F0F80145
:1034C000D9CFEE24FF2497012095309588819981EA
:1034D00082239323998388830E942A2C888199814F
:1034E000DF91CF911F910F91FF90EF90DF90CF90E0
:1034F0000895BA010E941A1A0895CF93DF93EC0140
:103500000E9481258A81882349F08F81988560E017
:1035100072E00E94A6268A818823B9F70E942A2C8D
:10352000CE010E946E18DF91CF910895AF92BF92A5
:10353000CF92DF92EF92FF920F931F93CF93DF937F
:103540006C017B01A42EB22E0E948125F601C08160
:10355000D181CE01B7014B2D0E94081A882359F062
:10356000AA2009F1C701809590958C239D23F6012F
:103570009183808318C001151105A9F0AA2019F0C4
:1035800060E071E002C060E070E0B11074606E292C
:103590007F29C6010296A8010E94A22E0E942A2C11
:1035A000882339F404C00E942A2C9E0122C00E9464
:1035B00096190E94D228EC0191FD19C00FB6F8941B
:1035C0000F92F601C081D181CE01B7014B2D0E942F
:1035D000081A882351F0AA2041F0C70180959095E0
:1035E0008C239D23F601918380830F900FBE9E0153
:1035F0003070822F932FDF91CF911F910F91FF9009
:10360000EF90DF90CF90BF90AF900895AF92BF92B0
:10361000CF92DF92EF92FF920F931F93CF93DF939E
:10362000EC017B016A0159010E9481250881198101
:10363000CE01B7010E941A1AE02AF12A96012E2122
:103640003F212C153D0549F42095309588819981BD
:10365000822393239983888311C0A114B10461F05C
:10366000B6017560CE010296A5010E94A22E0E94AD
:103670002A2C882341F405C0E880F9800E942A2C76
:103680001DC00E9496190E94D2287C0191FD13C092
:103690000FB6F8940F92E880F980C6018E219F2121
:1036A0008C159D0531F4809590958E219F219983ED
:1036B00088830F900FBE8FEFE822FF248E2D9F2D61
:1036C000DF91CF911F910F91FF90EF90DF90CF90FE
:1036D000BF90AF900895CF93DF938BE090E00E946E
:1036E0007F18EC01209731F0FE0111921192CF0169
:1036F0000E947F1B8C2F9D2FDF91CF910895FC019D
:103700009C012D5F3F4F328321838FEF9FEF948386
:103710008383368325833087278310820895FC01B5
:10372000118610860895AC01FC01A181B281FB01D4
:10373000B383A28314968D919C911597958384836E
:103740001496ED91FC9115977383628315967C9383
:103750006E931497FB0151874087FA0180818F5F38
:1037600080830895CF93DF93AC01EB0128813981E9
:103770008FEF2F3F380721F4FA01A781B0850DC0E4
:10378000DA0113961296ED91FC9113978081918145
:103790002817390710F0DF01F5CF1296ED91FC9153
:1037A0001397FB83EA83D583C483BD83AC831396CD
:1037B000DC93CE93129759874887FA0180818F5FF7
:1037C0008083DF91CF910895CF93DF93EC0128851B
:1037D0003985EA81FB818C819D8195838483AC81CD
:1037E000BD811396FC93EE931297D9011196ED913A
:1037F000FC911297EC17FD0731F4848195811296A4
:103800009C938E93119719861886F90180818150B7
:1038100080838081DF91CF910895FC010FB6F894E9
:103820000F92828D0F900FBE0895FC010FB6F89491
:103830000F92928D0F900FBE838D891B0895FC010E
:10384000828D0895FC010FB6F8940F92828D0F902F
:103850000FBE90E0882309F491E0892F0895FC01C0
:10386000828D90E0882309F491E0892F0895FC016E
:10387000928D20E0838D981709F421E0822F08951E
:103880000E946E180895FC01562FA72F248D222325
:10389000B9F086819781820F911D97838683248159
:1038A00035818217930720F08081918197838683E9
:1038B000448D66817781852F9A2F50E00E94E232F5
:1038C00008950F931F93CF93DF93EC018A8D882384
:1038D00041F00E811F81CE010E94431C1F830E8385
:1038E00081E0DF91CF911F910F9108950F931F9366
:1038F000CF93DF93EC01042F1A8D4C8D4423A1F15B
:103900000023B1F48A819B8150E00E94E2328C8DC9
:103910002A813B81280F311D3B832A838C819D8125
:103920002817390708F1888199819B838A831CC0F5
:103930008E819F8150E00E94E2328C8D2E813F81EA
:10394000281B31093F832E838881998128173907E5
:1039500038F42C8D8C819D81821B91099F838E83ED
:10396000023011F411111150812F8F5F8A8F80E086
:10397000DF91CF911F910F910895EF92FF920F93D6
:103980001F93CF93DF93EC017A011A8D112311F469
:1039900080E022C00D8D0E94431C812F81508A8FB0
:1039A0000F3F81F488858823B1F0CE0108960E94EC
:1039B000EF25882381F0E114F10469F081E0F7013B
:1039C00080830AC00E949A25081728F4802F8F5FF1
:1039D0008D8F81E001C081E0DF91CF911F910F9128
:1039E000FF90EF900895EF92FF921F93CF93DF9394
:1039F000EC017B019A8D8B8D981710F080E020C030
:103A00001E8D892F8F5F8A8F1F3F81F489898823BC
:103A1000B1F0CE0141960E94EF25882381F0E11498
:103A2000F10469F081E0F70180830AC00E949A25C1
:103A3000181728F4812F8F5F8E8F81E001C081E0FD
:103A4000DF91CF911F91FF90EF900895EF92FF9239
:103A50001F93CF93DF93EC017A019A8D8B8D98178A
:103A600020F0223011F080E022C01E8D8A8DCE0120
:103A7000422F0E94761C1F3F81F489898823B1F070
:103A8000CE0141960E94EF25882381F0E114F104D4
:103A900069F081E0F70180830AC00E949A25181717
:103AA00028F4812F8F5F8E8F81E001C081E0DF914C
:103AB000CF911F91FF90EF900895EF92FF921F9387
:103AC000CF93DF93EC010FB6F8940F921E8D111671
:103AD000C4F489898823A9F00F2EF1E1EF2EFF2489
:103AE000F02DEC0EFD1E03C08989882351F0C7011B
:103AF0000E94EF25882311F00E9490271150111683
:103B00009CF38FEF8E8F0F900FBE0FB6F8940F922D
:103B10001D8D1116BCF488858823A1F0EE24FF24A6
:103B20006894E3F8EC0EFD1E03C08885882351F0ED
:103B3000C7010E94EF25882311F00E9490271150A1
:103B400011169CF38FEF8D8F0F900FBEDF91CF91E9
:103B50001F91FF90EF9008956F927F928F929F92A6
:103B6000AF92BF92CF92DF92EF92FF920F931F938B
:103B7000DF93CF9300D000D00F92CDB7DEB77C019A
:103B80003B015D834C830F2EF1E18F2E9924F02DA4
:103B9000880E991E00E06E010894C11CD11C11E032
:103BA000AA24BB246894A2F8AC0EBD1E0FB6F894EC
:103BB0000F92F701828D8823B9F006811781C70122
:103BC000B3010E94431CF701178306838189882370
:103BD00039F0C4010E94EF25882311F00E94961944
:103BE0000F900FBE81E04EC08C819D81892B21F406
:103BF0000F900FBE80E046C0002321F4C6010E9452
:103C00005527012F0F900FBE0E9481250FB6F89403
:103C10000F92F701858D8F3F09F4158EF701868D80
:103C20008F3F09F4168E0F900FBEC601B5010E949A
:103C300060278823D9F4C7010E94221C882381F0C1
:103C40006C817D81C4010E94332FC7010E945D1DDC
:103C50000E942A2C882309F0A9CF0E949619A6CF8A
:103C6000C7010E945D1D0E942A2CA0CFC7010E949F
:103C70005D1D0E942A2CC7010E94221C882309F482
:103C800095CF80E00F900F900F900F900F90CF91F5
:103C9000DF911F910F91FF90EF90DF90CF90BF9039
:103CA000AF909F908F907F906F9008958F929F928A
:103CB000AF92BF92CF92DF92EF92FF920F931F933A
:103CC000DF93CF9300D000D00F92CDB7DEB78C0139
:103CD0007D836C830F2EF1E18F2E9924F02D880EB9
:103CE000991EFF246E010894C11CD11CEE24E3949C
:103CF000AA24BB246894A2F8AC0EBD1E0FB6F8949B
:103D00000F92F801828D882389F08150828F8085FF
:103D1000882341F0C80108960E94EF25882311F0FE
:103D20000E9496190F900FBE81E04EC08C819D813C
:103D3000892B21F40F900FBE80E046C0FF2021F4B4
:103D4000C6010E945527FE2C0F900FBE0E948125B0
:103D50000FB6F8940F92F801858D8F3F09F4158EF8
:103D6000F801868D8F3F09F4168E0F900FBEC601A5
:103D7000B5010E9460278823D9F4C8010E94221C43
:103D8000882381F06C817D81C4010E94332FC8019A
:103D90000E945D1D0E942A2C882309F0AFCF0E944B
:103DA0009619ACCFC8010E945D1D0E942A2CA6CF97
:103DB000C8010E945D1D0E942A2CC8010E94221C7D
:103DC000882309F49BCF80E00F900F900F900F9005
:103DD0000F90CF91DF911F910F91FF90EF90DF90A7
:103DE000CF90BF90AF909F908F9008955F926F9209
:103DF0007F928F929F92AF92BF92CF92DF92EF927B
:103E0000FF920F931F93DF93CF9300D000D00F92B8
:103E1000CDB7DEB78C013B015D834C830F2EF1E102
:103E20008F2E9924F02D880E991EEE246E01089491
:103E3000C11CD11C55245394AA24BB246894A2F815
:103E4000AC0EBD1E0FB6F8940F92F801F28CFF2055
:103E5000B9F0C801B3010E94431C8F2D8150F801B5
:103E6000828F8085882341F0C80108960E94EF2543
:103E7000882311F00E9496190F900FBE81E04EC06A
:103E80008C819D81892B21F40F900FBE80E046C06C
:103E9000EE2021F4C6010E945527E52C0F900FBE9D
:103EA0000E9481250FB6F8940F92F801858D8F3FFF
:103EB00009F4158EF801868D8F3F09F4168E0F9048
:103EC0000FBEC601B5010E9460278823D9F4C8013E
:103ED0000E94221C882381F06C817D81C4010E9494
:103EE000332FC8010E945D1D0E942A2C882309F0EF
:103EF000A9CF0E949619A6CFC8010E945D1D0E94FD
:103F00002A2CA0CFC8010E945D1D0E942A2CC80146
:103F10000E94221C882309F495CF80E00F900F9017
:103F20000F900F900F90CF91DF911F910F91FF9005
:103F3000EF90DF90CF90BF90AF909F908F907F9049
:103F40006F905F9008955F926F927F928F929F9291
:103F5000AF92BF92CF92DF92EF92FF920F931F9397
:103F6000DF93CF9300D000D00F92CDB7DEB78C0196
:103F70003B015D834C83E22EAA24BB246894A3F802
:103F8000A80EB91EFF246E010894C11CD11C552433
:103F9000539488249924689482F88C0E9D1E0FB641
:103FA000F8940F92F801928D838D981718F0F2E033
:103FB000EF16D9F4C801B3014E2D0E94761C982F3C
:103FC000F8018189882349F0C80141960E94EF25B4
:103FD000882339F00E94961904C0992311F00E9499
:103FE00096190F900FBE81E04EC08C819D81892B68
:103FF00021F40F900FBE80E046C0FF2021F4C601DF
:104000000E945527F52C0F900FBE0E9481250FB6F8
:10401000F8940F92F801858D8F3F09F4158EF80101
:10402000868D8F3F09F4168E0F900FBEC601B40126
:104030000E946027882309F50FB6F8940F92F801C3
:10404000928D0F900FBEF801838D981781F46C81CB
:104050007D81C5010E94332FC8010E945D1D0E9411
:104060002A2C882309F09BCF0E94961998CFC8016B
:104070000E945D1D0E942A2C92CFC8010E945D1DE6
:104080000E942A2C80E00F900F900F900F900F90BD
:10409000CF91DF911F910F91FF90EF90DF90CF9024
:1040A000BF90AF909F908F907F906F905F9008959A
:1040B000CF93DF93EC01E62F009709F44FC02B8DCF
:1040C000222309F44BC03C8D8FEF9FE7622F70E0F5
:1040D0000E945231832F90E06817790708F43EC0A0
:1040E0000FB6F8940F92329FC00111244881598174
:1040F000840F951F9D838C831A8E5B834A832B8D3F
:1041000030E0215030408C8D90E0BC01269FC001F2
:10411000279F900D369F900D1124480F591F5F83E4
:104120004E838FEF8D8F8E8FEE2361F488858823E9
:1041300089F0CE0108960E94EF25882359F00E944D
:10414000961908C0CE0108960E947F1BCE014196A9
:104150000E947F1B0F900FBE81E001C080E0DF91C5
:10416000CF9108950F931F93CF93DF93182F062FAE
:10417000882341F18FEF9FE7612F70E00E94523159
:10418000802F90E068177907E8F0019FC0011124A3
:104190002FE7813E9207B0F44F960E947F18EC0102
:1041A000209791F0002319F4D983C88304C0CE016D
:1041B0004F96998388831B8F0C8FCE0161E00E94FC
:1041C000582002C0C0E0D0E08C2F9D2FDF91CF910E
:1041D0001F910F910895FC016115710511F461E0C3
:1041E00070E0848195816817790710F080E0089568
:1041F0007783668381E00895FC01A481B5812081E5
:1042000031814081518162817381808191818217E6
:104210009307A9F7CD01840F951F01979C01261BD9
:10422000370B2A173B0710F02A1B3B0B822F932FCB
:104230000895FC01208131818281938140E08217C1
:10424000930709F441E0842F0895CF93DF93FC0195
:10425000868580FD03C0C0E0D0E002C0C2E0D0E0AF
:10426000CF010E94FC2020E0C817D90708F021E008
:10427000822FDF91CF910895FC0144815581828185
:10428000938120813181840F951FBC01621B730BC8
:104290009B016417750710F0241B350B822F932F99
:1042A00008950E943C210895CF92DF92EF92FF92F1
:1042B0000F93CF93DF93EC016B018A859B85892B4C
:1042C00011F480E00FC08A859B8560E020E030E03B
:1042D00040E050E000E0EE24FF240E94EA281B8624
:1042E0001A8681E0DF91CF910F91FF90EF90DF90E0
:1042F000CF900895CF92DF92EF92FF920F93CF93DA
:10430000DF93EC016B0188859985892B11F480E09E
:104310000FC08885998560E020E030E040E050E003
:1043200000E0EE24FF240E94EA281986188681E026
:10433000DF91CF910F91FF90EF90DF90CF90089594
:10434000AF92BF92CF92DF92EF92FF920F931F93A3
:10435000CF93DF936C018B017A015901DC01149634
:104360008D919C911597EC01C21BD30B4C175D07E7
:1043700008F4EA01F601248535852A0D3B1D802FBE
:10438000912F622F732F4C2F5D2F0E94E232CE159A
:10439000DF0590F498012C0F3D1FF701EC1BFD0B7E
:1043A000D6011C966C911C971D967C91822F932FA1
:1043B0004E2F5F2F0E94E23295012E0D3F1DF60118
:1043C000848195812817390710F0281B390B822F1B
:1043D000932FDF91CF911F910F91FF90EF90DF907E
:1043E000CF90BF90AF900895AF92BF92CF92DF92DF
:1043F000EF92FF920F931F93DF93CF9300D0CDB72F
:10440000DEB77C015B016A018901FC0120813181F9
:10441000868580FD02C0CA0113C0C701BE016F5F5F
:104420007F4F42E050E00E94A0219C0189819A8147
:10443000C816D90618F400E010E011C00250104070
:104440008017910708F48C010115110541F0C7018F
:10445000B501A8010E94A021F70191838083802FDC
:10446000912F0F900F90CF91DF911F910F91FF909F
:10447000EF90DF90CF90BF90AF900895AF92BF9232
:10448000CF92DF92EF92FF920F931F93CF93DF9320
:104490005C017B018A016901FC01868580FD03C006
:1044A000C0E0D0E002C0C2E0D0E0C5010E943C21E3
:1044B0009C01C817D90718F0C0E0D0E01CC0C501A6
:1044C000B701A8010E94F421EC010097A1F0F501C9
:1044D00082859385892B79F08285938560E020E041
:1044E00030E040E050E000E0EE24FF240E94EA28A3
:1044F000F501138612868C2F9D2FDF91CF911F918E
:104500000F91FF90EF90DF90CF90BF90AF90089504
:104510000F931F93DF93CF9300D0CDB7DEB78C01FD
:10452000FC01868580FF13C0C8010E943C210397CF
:1045300070F0F80120813181C801BE016F5F7F4FAB
:1045400042E050E00E94A02129813A8102C020E08F
:1045500030E0822F932F0F900F90CF91DF911F911A
:104560000F910895AF92BF92CF92DF92EF92FF9298
:104570000F931F93CF93DF936C017B018A01590145
:10458000DC0114968D919C911597EC01C21BD30B05
:104590004C175D0708F4EA01F601248535852A0DDC
:1045A0003B1D822F932F6E2D7F2D4C2F5D2F0E9450
:1045B000E232C017D10790F4F801EC1BFD0B970114
:1045C0002C0F3D1FD6011C968C911C971D969C911B
:1045D000622F732F4E2F5F2F0E94E2329501200F22
:1045E000311FF601848195812817390710F0281BA7
:1045F000390B822F932FDF91CF911F910F91FF9055
:10460000EF90DF90CF90BF90AF900895AF92BF92A0
:10461000CF92DF92EF92FF920F931F93DF93CF938E
:1046200000D0CDB7DEB76C015B017A01DC011296D8
:10463000ED91FC9113971E968C9180FF13C020176B
:10464000310718F4EE24FF241DC05A834983C601A4
:10465000BE016F5F7F4F42E050E09F010E94B22297
:10466000FC0104C02417350708F47901E114F104B2
:1046700049F0C601B501A7019F010E94B222F601CF
:10468000938382838E2D9F2D0F900F90CF91DF917A
:104690001F910F91FF90EF90DF90CF90BF90AF9060
:1046A0000895AF92BF92CF92DF92EF92FF920F9355
:1046B0001F93CF93DF935C017B01EA016901FC0149
:1046C000868580FD02C08A0103C08A010E5F1F4FEC
:1046D000C5010E94FC209C01C501B701AE010E94EA
:1046E0000623EC010097E1F0C5010E943C21F50191
:1046F000268137818217930798F080859185892BD1
:1047000079F08085918560E020E030E040E050E085
:1047100000E0EE24FF240E94EA28F50111861086AD
:104720008C2F9D2FDF91CF911F910F91FF90EF90D4
:10473000DF90CF90BF90AF9008954F925F926F92AD
:104740007F928F929F92AF92BF92CF92DF92EF9221
:10475000FF920F931F93CF93DF935C013B012A01DC
:104760006901FC01868580FD03C08824992404C06A
:1047700088249924689481F8C114D10471F10FB68A
:10478000F8940F92C5010E943C21EC01881699060D
:1047900050F080E090E060E00E94D42A0E94CB2894
:1047A000F501918780870F900FBE8C169D06F8F05B
:1047B00080E040E050E060E070E000E010E020E0E9
:1047C00030E0EE24FF240E94612DF5011186108651
:1047D000C5010E943C21EC0104C0C5010E943C219E
:1047E000EC018C169D0618F0C0E0D0E021C0C50198
:1047F000B301A2019E010E94F421EC010097C1F0D7
:104800000E948125F50182859385892B79F0828527
:10481000938560E020E030E040E050E000E0EE24EE
:10482000FF240E94382BF501138612860E942A2C41
:104830008C2F9D2FDF91CF911F910F91FF90EF90C3
:10484000DF90CF90BF90AF909F908F907F906F90B0
:104850005F904F9008952F923F924F925F926F9288
:104860007F928F929F92AF92BF92CF92DF92EF9200
:10487000FF920F931F93DF93CF93CDB7DEB72797A8
:104880000FB6F894DEBF0FBECDBF5C017F836E8391
:104890002A013D832C83FC01848195819C01215058
:1048A0003040868580FF0CC066247724689461F8C8
:1048B000640E751E2615370540F41D821C8248C003
:1048C0003A012417350708F439018C819D81892B21
:1048D00009F43EC0CE0101960E9445271E010894AE
:1048E000211C311C0FB6F8940F92C5010E94FC20C8
:1048F0004C018615970540F580E090E060E00E944D
:10490000D42A0E94CB28F501938782870F900FBE8F
:10491000CC80DD8080E040E050E060E070E000E0CE
:1049200010E020E030E0EE24FF240E94612DF5012C
:1049300013861286C101BE016C5F7F4F0E94602703
:10494000882381F2C40102C00F900FBE892B21F48D
:10495000C5010E94FC204C01C5016E817F81A2012E
:10496000940183010E9406236C01009709F1C5019F
:104970000E943C21F5012681378182179307C0F000
:104980000E948125F50180859185892B79F08085AC
:10499000918560E020E030E040E050E000E0EE246F
:1049A000FF240E94382BF501118610860E942A2CC4
:1049B0008C2D9D2D27960FB6F894DEBF0FBECDBF70
:1049C000CF91DF911F910F91FF90EF90DF90CF90EB
:1049D000BF90AF909F908F907F906F905F904F901F
:1049E0003F902F9008950F93FC018FE0DF011D92FF
:1049F0008A95E9F7758764875583448337832683CF
:104A000006870F910895CF92DF92EF92FF920F9356
:104A1000FC010FB6F8940F9280859185892BA1F443
:104A200082859385892B81F46485758544815581C0
:104A300026813781CF010685EE24FF24CC24DD2496
:104A40000E94F32481E001C080E00F900FBE0F911F
:104A5000FF90EF90DF90CF900895FC01868581FD57
:104A600004C0CF010E946E1808958FE0DF011D92EF
:104A70008A95E9F708957F928F929F92AF92BF92A5
:104A8000CF92DF92EF92FF920F931F93CF93DF931A
:104A90007C016B01742E590148016115710519F4EF
:104AA000CC24DD24C394C7014096E816F90618F01B
:104AB000C0E0D0E016C00E947F18EC01209789F07A
:104AC000BE01615F7F4FA7014F5F5F4F00E081E054
:104AD000781609F401E0CE019601750164010E9487
:104AE000F3248C2F9D2FDF91CF911F910F91FF9079
:104AF000EF90DF90CF90BF90AF909F908F907F907E
:104B000008958091C3078F5F8093C30708950FB600
:104B1000F8940F922091C6073091C7070F900FBEEF
:104B2000822F932F08952091C6073091C707822FB7
:104B3000932F08958091CD070895009721F48091D7
:104B4000C1079091C2079C01275E3F4F822F932F90
:104B500008958091C307882321F081E08093C507E1
:104B600008951092C5072091C40789E0289FC001CD
:104B70001124DC01AD52B84F8C91882369F439E0DF
:104B800043ED57E02150239FC0011124DA01A80F03
:104B9000B91F8C918823B1F31196ED91FC91129776
:104BA0000280F381E02D1296FC93EE931197CD01D4
:104BB0000396E817F90731F48281938112969C934A
:104BC0008E9311971196ED91FC91129786819781A2
:104BD0009093C2078093C1072093C4070895CF9391
:104BE000DF93DC011596ED91FC911697C681D78174
:104BF0002C893D89AE85BF858889998915969C93B6
:104C00008E931497E889F989B383A283AE01445F38
:104C10005F4FF901818192818417950721F488897A
:104C20009989928381831D8A1C8AD9018C91815034
:104C30008C938091C307882309F059C02A853B854E
:104C4000AC81BD818E819F8115969C938E93149724
:104C5000EE81FF81B383A283BE016E5F7F4FF901B6
:104C6000818192818617970721F48E819F8192839B
:104C700081831B861A86D9018C9181508C932E8951
:104C80008091C407821710F42093C40730E0C90153
:104C9000880F991F880F991F880F991F820F931FE4
:104CA00043ED57E0FA01E80FF91FA181B281BD83FE
:104CB000AC8314968D919C9115979F838E83149647
:104CC000ED91FC9115977383628315967C936E9397
:104CD00014978E8929E0829FC0011124480F591F23
:104CE0005B874A87FA0180818F5F80831FC02EE037
:104CF00038E0F901A081B181BF87AE8714968D910C
:104D00009C911597998B888B1496ED91FC91159732
:104D10005383428315965C934E93149721503040F1
:104D20003D8B2C8BD9018C918F5F8C93E091C107C7
:104D3000F091C2079E898689891710F080E003C030
:104D400081E08093C507DF91CF9108950F931F9362
:104D5000CF93DF93EC017068798368836E817F81E4
:104D600028853985AA81BB818C819D8115969C936C
:104D70008E931497EC81FD81B383A283D9011196A0
:104D8000ED91FC911297EC17FD0731F48481958128
:104D900012969C938E93119719861886F90180813B
:104DA00081508083DB011A96CD91DC911B9714967C
:104DB0000D90BC91A02DFB018681978115969C9347
:104DC0008E93149786819781FC01B383A2838B0114
:104DD0000E5F1F4F89819A818017910711F4FA8322
:104DE000E983FB0113861286888181508883268996
:104DF0008091C407821710F42093C40730E0C901E2
:104E0000880F991F880F991F880F991F820F931F72
:104E100043ED57E0FA01E80FF91FA181B281FB01D0
:104E2000B583A48314968D919C911597978386835F
:104E30001496ED91FC9115971383028315961C939C
:104E40000E931497DB0156968C91569729E0829F1A
:104E5000C0011124480F591F1B965C934E931A975B
:104E6000FA0180818F5F8083E091C107F091C207D2
:104E700056969C918689891718F481E08093C5071E
:104E8000DF91CF911F910F910895FC010FB6F89417
:104E90000F928091CA0780838091C6079091C707BF
:104EA000928381830F900FBE0895FC018091CA0701
:104EB00080838091C6079091C7079283818308956C
:104EC000FC01DB010FB6F8940F924091C607509198
:104ED000C707218132819091CA078081891739F0F3
:104EE0004217530720F01D921C9281E016C0CA01A0
:104EF000821B930B9C018D919C9111972817390768
:104F000048F4821B930B8D939C93CF010E945527ED
:104F100080E003C01D921C9281E00F900FBE0895A7
:104F200081E08093C5070895E0910908F0910A088F
:104F30008081882339F48FEF9FEF9093C907809386
:104F4000C8070895E0910908F0910A080580F681E4
:104F5000E02D808191819093C9078093C8070895BF
:104F6000BF92CF92DF92EF92FF920F931F93CF9356
:104F7000DF938091C307882309F0F8C08091C607AA
:104F80009091C7078C010F5F1F4F1093C7070093C5
:104F9000C60701151105B9F48091090890910A0816
:104FA00020910B0830910C0830930A0820930908CF
:104FB00090930C0880930B088091CA078F5F8093B1
:104FC000CA070E9494278091C8079091C9070817C3
:104FD000190708F4B3C0DD240F2EF3EDEF2EF7E030
:104FE000FF2EF02D0F2EF9E0CF2EF02DBB24B39421
:104FF000E0910908F0910A088081882339F48FEF45
:105000009FEF9093C9078093C80799C0E091090862
:10501000F0910A080580F681E02DC681D7818A814A
:105020009B810817190728F49093C9078093C80734
:1050300086C02A853B85AC81BD818E819F81159676
:105040009C938E931497EE81FF81B383A283BE015C
:105050006E5F7F4FF901818192818617970721F456
:105060008E819F81928381831B861A86F9018081BC
:10507000815080834C895D8941155105F9F0AE85D9
:10508000BF858889998915969C938E931497E88992
:10509000F989B383A2839E01245F3F4FFA01818186
:1050A00092818217930721F4888999899283818359
:1050B0001D8A1C8AFA018081815080839E8980919B
:1050C000C407891710F49093C4072E8930E0C901F2
:1050D000880F991F880F991F880F991F820F931FA0
:1050E000F701E80FF91FA181B281BD83AC8314964B
:1050F0008D919C9115979F838E831496ED91FC91D1
:1051000015977383628315967C936E9314978E899B
:105110008C9DC0011124F701E80FF91FFB87EA8776
:1051200080818F5F8083E091C107F091C2079E89E3
:105130008689891708F05CCFDB2C5ACFDD24E091FB
:10514000C107F091C207E68989E0E89FF0011124C8
:10515000ED52F84F8081823010F0DD24D39480919D
:10516000C507882369F0DD24D3940AC08091CB075A
:105170009091CC0701969093CC078093CB07DD24C8
:105180008D2DDF91CF911F910F91FF90EF90DF90C8
:10519000CF90BF9008952091C1073091C207822F10
:1051A000932F0895E091C107F091C20784859585FA
:1051B000A091C107B091C207E091C107F091C20769
:1051C000468924E030E0241B31091D963C932E9340
:1051D0001C970895AF92BF92CF92DF92EF92FF9209
:1051E0000F931F93CF93DF935C01E7017601209724
:1051F00091F0862F90E0880F991F880F991FF50175
:10520000E80FF91FB19680819181A281B3818883D3
:105210009983AA83BB8370E0F501E60FF71FB5966B
:10522000108182E08083023011F1033020F40130DC
:1052300009F051C006C0033079F1043009F04BC0C9
:1052400039C0CB01880F991F880F991FF501E80F0E
:10525000F91FB19680819181A281B381822B932B1A
:10526000A42BB52B80839183A283B38334C0CB015D
:10527000880F991F880F991FF501E80FF91FB19644
:1052800080819181A281B3810196A11DB11D80838E
:105290009183A283B3831FC0CB01880F991F880F0E
:1052A000991FF501E80FF91FB196208331834283DE
:1052B000538311C0123011F480E0B2C0CB01880FCB
:1052C000991F880F991FF501E80FF91FB1962083E8
:1052D000318342835383113009F0A1C08091C30709
:1052E000882309F063C0D5011A96CD91DC911B97F4
:1052F00014960D90BC91A02DF5018681978115968D
:105300009C938E93149786819781FC01B383A2832B
:10531000B5016E5F7F4F89819A818617970711F4D7
:10532000FA83E983F5011386128688818150888388
:1053300026898091C407821710F42093C40730E0B7
:10534000C901880F991F880F991F880F991F820F15
:10535000931F43ED57E0FA01E80FF91FA181B281D5
:10536000F501B583A48314968D919C91159797832D
:1053700086831496ED91FC9115977383628315963D
:105380007C936E931497D50156968C91569729E08D
:10539000829FC0011124480F591F1B965C934E93A6
:1053A0001A97FA0180818F5F808325C02EE038E054
:1053B000F901A081B181F501B787A68714968D9177
:1053C0009C911597918B808BC5010C961496ED914D
:1053D000FC9115979383828315969C938E931497D3
:1053E00021503040D50155963C932E935497F901A6
:1053F00080818F5F8083E091C107F091C207D50162
:1054000056969C918689891750F4E114F10419F09D
:1054100081E0F701808381E08093C50701C081E0CE
:10542000DF91CF911F910F91FF90EF90DF90CF9080
:10543000BF90AF9008950F931F93CF93DF93EC012C
:105440008A0170E0FC01E60FF71FB596208182E02B
:105450008083660F771F660F771FFE01E60FF71F29
:10546000B19680819181A281B3810196A11DB11D68
:1054700080839183A283B383213009F090C080910F
:10548000C307882309F059C02A853B85AC81BD81BB
:105490008E819F8115969C938E931497EE81FF8148
:1054A000B383A283BE016E5F7F4FF9018181928138
:1054B0008617970721F48E819F81928381831B86B3
:1054C0001A86F9018081815080832E898091C407DA
:1054D000821710F42093C40730E0C901880F991F88
:1054E000880F991F880F991F820F931F43ED57E074
:1054F000FA01E80FF91FA181B281BD83AC83149634
:105500008D919C9115979F838E831496ED91FC91BC
:1055100015977383628315967C936E9314978E8987
:1055200029E0829FC0011124480F591F5B874A87D9
:10553000FA0180818F5F808321C02EE038E0F9017D
:10554000A081B181BF87AE8714968D919C911597EC
:10555000998B888BCE010C961496ED91FC91159742
:105560009383828315969C938E9314972150304099
:105570003D8B2C8BF90180818F5F8083E091C10787
:10558000F091C2079E898689891748F40115110593
:1055900019F081E0F801808381E08093C507DF91F5
:1055A000CF911F910F910895262F009711F0BC0104
:1055B00004C06091C1077091C2070FB6F8940F92B2
:1055C00030E0FB01E20FF31FB5968081823011F0CD
:1055D00080E006C0FB01E20FF31FB596108281E068
:1055E0000F900FBE0895AF92BF92CF92DF92EF92CD
:1055F000FF920F931F93E62F59016A01009711F054
:10560000BC0104C06091C1077091C2070FB6F89445
:105610000F928E2F90E0880F991F880F991FFB0122
:10562000E80FF91FB1962081318142815381E080DA
:10563000F18002811381D601C50180959095A095D6
:10564000B0958E219F21A023B12380839183A283D3
:10565000B3830F900FBE622F732F842F952F1F914E
:105660000F91FF90EF90DF90CF90BF90AF90089593
:10567000EF92FF920F931F93CF93DF93EC010FB63E
:10568000F8940F92E114F10499F0862F90E0880FBE
:10569000991F880F991FFE01E80FF91FB1968081AD
:1056A0009181A281B381F70180839183A283B38327
:1056B00070E0FE01E60FF71FB596108182E080834F
:1056C000023011F1033020F4013009F051C006C05E
:1056D000033079F1043009F04BC039C0CB01880F99
:1056E000991F880F991FFE01E80FF91FB19680815D
:1056F0009181A281B381822B932BA42BB52B808324
:105700009183A283B38334C0CB01880F991F880F84
:10571000991FFE01E80FF91FB19680819181A28146
:10572000B3810196A11DB11D80839183A283B383B0
:105730001FC0CB01880F991F880F991FFE01E80F2A
:10574000F91FB196208331834283538311C01230F5
:1057500011F480E076C0CB01880F991F880F991F44
:10576000FE01E80FF91FB1962083318342835383F2
:10577000113009F065C02A853B85AC81BD818E81E1
:105780009F8115969C938E931497EE81FF81B3832E
:10579000A283BE016E5F7F4FF901818192818617DE
:1057A000970721F48E819F81928381831B861A86BD
:1057B000F9018081815080839E898091C407891777
:1057C00010F49093C4078E8990E09C01220F331F40
:1057D000220F331F220F331F280F391F43ED57E0CD
:1057E000FA01E20FF31FA181B281BD83AC8314964D
:1057F0008D919C9115979F838E831496ED91FC91CA
:1058000015977383628315967C936E9314978E8994
:1058100029E0829FC0011124480F591F5B874A87E6
:10582000FA0180818F5F8083E091C107F091C20708
:105830009E898689891720F40E94961981E001C00B
:1058400081E00F900FBEDF91CF911F910F91FF90DC
:10585000EF900895EF92FF920F931F93CF93DF93F2
:105860000FB6F8940F928091C30781508093C307BD
:105870008091C307882309F0BDC08091CD0788239C
:1058800009F4B8C0C0E0D0E00DE018E063ED77E0C7
:105890000F2EF9E0FF2EF02DEE24E39487C0E09167
:1058A0001208F0911308C681D7814C895D89AE85B5
:1058B000BF858889998915969C938E931497E8895A
:1058C000F989B383A2839E01245F3F4FFA0181814E
:1058D00092818217930721F4888999899283818321
:1058E0001D8A1C8AFA018081815080832A853B852C
:1058F000AC81BD818E819F8115969C938E93149768
:10590000EE81FF81B383A283AE014E5F5F4FF90149
:10591000818192818417950721F48E819F819283E2
:1059200081831B861A86F9018081815080839E893C
:105930008091C407891710F49093C4072E8930E032
:10594000C901880F991F880F991F880F991F820F0F
:10595000931FFB01E80FF91FA181B281BD83AC83C6
:1059600014968D919C9115979F838E831496ED913B
:10597000FC9115975383428315965C934E9314972D
:105980008E898F9DC0011124FB01E80FF91FFB8751
:10599000EA8780818F5F8083E091C107F091C20721
:1059A0009E898689981710F0E092C507F8018081DA
:1059B000882309F074CFCD2B11F00E949427C09159
:1059C000CB07D091CC07209769F011E00E94B02757
:1059D000882311F01093C5072197C1F71092CC07C7
:1059E0001092CB078091C507882321F00E94961959
:1059F00081E001C080E00F900FBEDF91CF911F9139
:105A00000F91FF90EF9008950F931F938C010E94C8
:105A100081250FB6F8940F928091CB079091CC0717
:105A2000080F191F1093CC070093CB070F900FBEE0
:105A30000E942A2C1F910F910895EF92FF920F93CD
:105A40001F937C010091C6071091C7078091C10781
:105A50009091C20702960E94E41BE00EF11EE091B5
:105A6000C107F091C207F382E282E016F10668F402
:105A700080910B0890910C086091C1077091C2074A
:105A80006E5F7F4F0E94B21B17C0809109089091F2
:105A90000A086091C1077091C2076E5F7F4F0E9434
:105AA000B21B8091C8079091C907E816F90620F447
:105AB000F092C907E092C8071F910F91FF90EF90F5
:105AC00008954F925F926F927F928F929F92AF92C2
:105AD000BF92CF92DF92EF92FF920F931F93CF93DB
